{
  "contractName": "Collector",
  "abi": [
    {
      "constant": false,
      "inputs": [
        {
          "name": "itemID",
          "type": "uint256"
        }
      ],
      "name": "IsCollectableItem",
      "outputs": [
        {
          "name": "",
          "type": "bool"
        }
      ],
      "payable": false,
      "stateMutability": "nonpayable",
      "type": "function"
    }
  ],
  "bytecode": "0x6080604052348015600f57600080fd5b5060a78061001e6000396000f3fe6080604052348015600f57600080fd5b506004361060285760003560e01c8063fb59594914602d575b600080fd5b605660048036036020811015604157600080fd5b81019080803590602001909291905050506070565b604051808215151515815260200191505060405180910390f35b60006001905091905056fea165627a7a723058208b8a0a1bb50dd0fc260ff4508416353b2cf7a7d10b18accbe54c9821ef410e700029",
  "source": "pragma solidity ^0.5.0;\r\n\r\ncontract Collector {\r\n  // not built yet\r\n  function IsCollectableItem(uint itemID) external returns (bool) {\r\n    return true;\r\n  }\r\n}\r\n",
  "sourcePath": "/mnt/c/repos/blocklords-loom-contracts/contracts/Collector.sol",
  "compiler": {
    "name": "solc",
    "version": "0.5.8+commit.23d335f2.Emscripten.clang"
  },
  "schemaVersion": "3.0.15",
  "updatedAt": "2020-02-09T18:29:11.407Z",
  "devdoc": {
    "methods": {}
  },
  "userdoc": {
    "methods": {}
  }
}