{
  "contractName": "ItemContract",
  "abi": [
    {
      "constant": true,
      "inputs": [],
      "name": "TXTYPE_HASH_GRANT",
      "outputs": [
        {
          "name": "",
          "type": "bytes32"
        }
      ],
      "payable": false,
      "stateMutability": "view",
      "type": "function"
    },
    {
      "constant": true,
      "inputs": [],
      "name": "EIP712DOMAINTYPE_HASH",
      "outputs": [
        {
          "name": "",
          "type": "bytes32"
        }
      ],
      "payable": false,
      "stateMutability": "view",
      "type": "function"
    },
    {
      "constant": true,
      "inputs": [],
      "name": "TXTYPE_HASH_BACK",
      "outputs": [
        {
          "name": "",
          "type": "bytes32"
        }
      ],
      "payable": false,
      "stateMutability": "view",
      "type": "function"
    },
    {
      "constant": true,
      "inputs": [
        {
          "name": "",
          "type": "uint256"
        }
      ],
      "name": "itemList",
      "outputs": [
        {
          "name": "owner",
          "type": "uint256"
        }
      ],
      "payable": false,
      "stateMutability": "view",
      "type": "function"
    },
    {
      "constant": true,
      "inputs": [],
      "name": "TXTYPE_HASH_REFUSE",
      "outputs": [
        {
          "name": "",
          "type": "bytes32"
        }
      ],
      "payable": false,
      "stateMutability": "view",
      "type": "function"
    },
    {
      "constant": true,
      "inputs": [
        {
          "name": "",
          "type": "uint256"
        }
      ],
      "name": "lockedList",
      "outputs": [
        {
          "name": "owner",
          "type": "uint256"
        }
      ],
      "payable": false,
      "stateMutability": "view",
      "type": "function"
    },
    {
      "constant": true,
      "inputs": [
        {
          "name": "",
          "type": "uint256"
        }
      ],
      "name": "brokerOwnedList",
      "outputs": [
        {
          "name": "",
          "type": "uint256"
        }
      ],
      "payable": false,
      "stateMutability": "view",
      "type": "function"
    },
    {
      "constant": true,
      "inputs": [],
      "name": "nonce",
      "outputs": [
        {
          "name": "",
          "type": "uint256"
        }
      ],
      "payable": false,
      "stateMutability": "view",
      "type": "function"
    },
    {
      "constant": true,
      "inputs": [],
      "name": "DOMAIN_SEPARATOR_GRANT",
      "outputs": [
        {
          "name": "",
          "type": "bytes32"
        }
      ],
      "payable": false,
      "stateMutability": "view",
      "type": "function"
    },
    {
      "constant": true,
      "inputs": [],
      "name": "DOMAIN_SEPARATOR_BACK",
      "outputs": [
        {
          "name": "",
          "type": "bytes32"
        }
      ],
      "payable": false,
      "stateMutability": "view",
      "type": "function"
    },
    {
      "constant": true,
      "inputs": [
        {
          "name": "",
          "type": "uint256"
        }
      ],
      "name": "nonceList",
      "outputs": [
        {
          "name": "",
          "type": "uint256"
        }
      ],
      "payable": false,
      "stateMutability": "view",
      "type": "function"
    },
    {
      "constant": true,
      "inputs": [
        {
          "name": "",
          "type": "uint256"
        }
      ],
      "name": "createdList",
      "outputs": [
        {
          "name": "",
          "type": "bool"
        }
      ],
      "payable": false,
      "stateMutability": "view",
      "type": "function"
    },
    {
      "constant": true,
      "inputs": [],
      "name": "DOMAIN_SEPARATOR_REFUSE",
      "outputs": [
        {
          "name": "",
          "type": "bytes32"
        }
      ],
      "payable": false,
      "stateMutability": "view",
      "type": "function"
    },
    {
      "inputs": [
        {
          "name": "chainId",
          "type": "uint256"
        }
      ],
      "payable": false,
      "stateMutability": "nonpayable",
      "type": "constructor"
    },
    {
      "payable": false,
      "stateMutability": "nonpayable",
      "type": "fallback"
    },
    {
      "anonymous": false,
      "inputs": [
        {
          "indexed": false,
          "name": "itemID",
          "type": "uint256"
        },
        {
          "indexed": false,
          "name": "ownerID",
          "type": "string"
        },
        {
          "indexed": false,
          "name": "burnID",
          "type": "uint256"
        }
      ],
      "name": "ItemCreated",
      "type": "event"
    },
    {
      "anonymous": false,
      "inputs": [
        {
          "indexed": false,
          "name": "heroID",
          "type": "uint256"
        },
        {
          "indexed": false,
          "name": "itemIDs",
          "type": "uint256[5]"
        },
        {
          "indexed": false,
          "name": "ownerID",
          "type": "string"
        }
      ],
      "name": "ItemsLocked",
      "type": "event"
    },
    {
      "anonymous": false,
      "inputs": [
        {
          "indexed": false,
          "name": "heroID",
          "type": "uint256"
        },
        {
          "indexed": false,
          "name": "itemIDs",
          "type": "uint256[5]"
        },
        {
          "indexed": false,
          "name": "ownerID",
          "type": "string"
        }
      ],
      "name": "ItemsUnlocked",
      "type": "event"
    },
    {
      "anonymous": false,
      "inputs": [
        {
          "indexed": false,
          "name": "itemID",
          "type": "uint256"
        },
        {
          "indexed": false,
          "name": "ownerID",
          "type": "string"
        }
      ],
      "name": "OwnershipGranted",
      "type": "event"
    },
    {
      "anonymous": false,
      "inputs": [
        {
          "indexed": false,
          "name": "itemID",
          "type": "uint256"
        },
        {
          "indexed": false,
          "name": "ownerID",
          "type": "string"
        }
      ],
      "name": "OwnershipRefused",
      "type": "event"
    },
    {
      "anonymous": false,
      "inputs": [
        {
          "indexed": false,
          "name": "itemID",
          "type": "uint256"
        },
        {
          "indexed": false,
          "name": "ownerID",
          "type": "string"
        }
      ],
      "name": "OwnershipReturned",
      "type": "event"
    },
    {
      "anonymous": false,
      "inputs": [
        {
          "indexed": false,
          "name": "itemID",
          "type": "uint256"
        },
        {
          "indexed": false,
          "name": "ownerID",
          "type": "string"
        }
      ],
      "name": "ItemCollected",
      "type": "event"
    },
    {
      "constant": false,
      "inputs": [
        {
          "name": "account",
          "type": "address"
        }
      ],
      "name": "GetDigest",
      "outputs": [
        {
          "name": "",
          "type": "bytes32"
        }
      ],
      "payable": false,
      "stateMutability": "nonpayable",
      "type": "function"
    },
    {
      "constant": false,
      "inputs": [
        {
          "name": "account",
          "type": "address"
        },
        {
          "name": "v",
          "type": "uint8"
        },
        {
          "name": "r",
          "type": "bytes32"
        },
        {
          "name": "s",
          "type": "bytes32"
        }
      ],
      "name": "GetSigner",
      "outputs": [
        {
          "name": "",
          "type": "address"
        }
      ],
      "payable": false,
      "stateMutability": "nonpayable",
      "type": "function"
    },
    {
      "constant": false,
      "inputs": [
        {
          "name": "contractOwner",
          "type": "address"
        },
        {
          "name": "sigV",
          "type": "uint8"
        },
        {
          "name": "sigR",
          "type": "bytes32"
        },
        {
          "name": "sigS",
          "type": "bytes32"
        }
      ],
      "name": "SetContractOwner",
      "outputs": [],
      "payable": false,
      "stateMutability": "nonpayable",
      "type": "function"
    },
    {
      "constant": false,
      "inputs": [
        {
          "name": "heroToken",
          "type": "address"
        },
        {
          "name": "sigV",
          "type": "uint8"
        },
        {
          "name": "sigR",
          "type": "bytes32"
        },
        {
          "name": "sigS",
          "type": "bytes32"
        }
      ],
      "name": "SetHeroToken",
      "outputs": [],
      "payable": false,
      "stateMutability": "nonpayable",
      "type": "function"
    },
    {
      "constant": false,
      "inputs": [
        {
          "name": "walletless",
          "type": "address"
        },
        {
          "name": "sigV",
          "type": "uint8"
        },
        {
          "name": "sigR",
          "type": "bytes32"
        },
        {
          "name": "sigS",
          "type": "bytes32"
        }
      ],
      "name": "SetWalletless",
      "outputs": [],
      "payable": false,
      "stateMutability": "nonpayable",
      "type": "function"
    },
    {
      "constant": false,
      "inputs": [
        {
          "name": "broker",
          "type": "address"
        },
        {
          "name": "sigV",
          "type": "uint8"
        },
        {
          "name": "sigR",
          "type": "bytes32"
        },
        {
          "name": "sigS",
          "type": "bytes32"
        }
      ],
      "name": "SetBroker",
      "outputs": [],
      "payable": false,
      "stateMutability": "nonpayable",
      "type": "function"
    },
    {
      "constant": false,
      "inputs": [
        {
          "name": "collector",
          "type": "address"
        },
        {
          "name": "sigV",
          "type": "uint8"
        },
        {
          "name": "sigR",
          "type": "bytes32"
        },
        {
          "name": "sigS",
          "type": "bytes32"
        }
      ],
      "name": "SetCollector",
      "outputs": [],
      "payable": false,
      "stateMutability": "nonpayable",
      "type": "function"
    },
    {
      "constant": false,
      "inputs": [],
      "name": "GetNonce",
      "outputs": [
        {
          "name": "",
          "type": "uint256"
        }
      ],
      "payable": false,
      "stateMutability": "nonpayable",
      "type": "function"
    },
    {
      "constant": false,
      "inputs": [
        {
          "name": "ownerAddr",
          "type": "address"
        },
        {
          "name": "id",
          "type": "uint256"
        },
        {
          "name": "burnId",
          "type": "uint256"
        }
      ],
      "name": "SetItem",
      "outputs": [
        {
          "name": "",
          "type": "bool"
        }
      ],
      "payable": false,
      "stateMutability": "nonpayable",
      "type": "function"
    },
    {
      "constant": false,
      "inputs": [
        {
          "name": "ids",
          "type": "uint256[5]"
        },
        {
          "name": "heroID",
          "type": "uint256"
        }
      ],
      "name": "SetLockedItems",
      "outputs": [
        {
          "name": "",
          "type": "bool"
        }
      ],
      "payable": false,
      "stateMutability": "nonpayable",
      "type": "function"
    },
    {
      "constant": false,
      "inputs": [
        {
          "name": "ownerAddr",
          "type": "address"
        },
        {
          "name": "id",
          "type": "uint256"
        },
        {
          "name": "sigV",
          "type": "uint8"
        },
        {
          "name": "sigR",
          "type": "bytes32"
        },
        {
          "name": "sigS",
          "type": "bytes32"
        }
      ],
      "name": "GrantOwnership",
      "outputs": [],
      "payable": false,
      "stateMutability": "nonpayable",
      "type": "function"
    },
    {
      "constant": false,
      "inputs": [
        {
          "name": "ownerAddr",
          "type": "address"
        },
        {
          "name": "id",
          "type": "uint256"
        },
        {
          "name": "sigV",
          "type": "uint8"
        },
        {
          "name": "sigR",
          "type": "bytes32"
        },
        {
          "name": "sigS",
          "type": "bytes32"
        }
      ],
      "name": "RefuseOwnership",
      "outputs": [],
      "payable": false,
      "stateMutability": "nonpayable",
      "type": "function"
    },
    {
      "constant": false,
      "inputs": [
        {
          "name": "newOwner",
          "type": "address"
        },
        {
          "name": "id",
          "type": "uint256"
        }
      ],
      "name": "ReturnOwnership",
      "outputs": [],
      "payable": false,
      "stateMutability": "nonpayable",
      "type": "function"
    },
    {
      "constant": true,
      "inputs": [
        {
          "name": "id",
          "type": "uint256"
        },
        {
          "name": "owner",
          "type": "address"
        }
      ],
      "name": "IsItemOwner",
      "outputs": [
        {
          "name": "",
          "type": "bool"
        }
      ],
      "payable": false,
      "stateMutability": "view",
      "type": "function"
    },
    {
      "constant": true,
      "inputs": [
        {
          "name": "id",
          "type": "uint256"
        }
      ],
      "name": "IsItemExist",
      "outputs": [
        {
          "name": "",
          "type": "bool"
        }
      ],
      "payable": false,
      "stateMutability": "view",
      "type": "function"
    },
    {
      "constant": false,
      "inputs": [
        {
          "name": "ids",
          "type": "uint256[5]"
        },
        {
          "name": "heroID",
          "type": "uint256"
        }
      ],
      "name": "LockItems",
      "outputs": [],
      "payable": false,
      "stateMutability": "nonpayable",
      "type": "function"
    },
    {
      "constant": false,
      "inputs": [
        {
          "name": "heroID",
          "type": "uint256"
        }
      ],
      "name": "UnlockItems",
      "outputs": [],
      "payable": false,
      "stateMutability": "nonpayable",
      "type": "function"
    },
    {
      "constant": true,
      "inputs": [
        {
          "name": "heroID",
          "type": "uint256"
        }
      ],
      "name": "GetLockedItems",
      "outputs": [
        {
          "name": "",
          "type": "uint256"
        },
        {
          "name": "",
          "type": "uint256"
        },
        {
          "name": "",
          "type": "uint256"
        },
        {
          "name": "",
          "type": "uint256"
        },
        {
          "name": "",
          "type": "uint256"
        },
        {
          "name": "",
          "type": "uint256"
        }
      ],
      "payable": false,
      "stateMutability": "view",
      "type": "function"
    },
    {
      "constant": false,
      "inputs": [
        {
          "name": "itemID",
          "type": "uint256"
        },
        {
          "name": "ownerAddr",
          "type": "address"
        },
        {
          "name": "sigV",
          "type": "uint8"
        },
        {
          "name": "sigR",
          "type": "bytes32"
        },
        {
          "name": "sigS",
          "type": "bytes32"
        }
      ],
      "name": "GiveBack",
      "outputs": [],
      "payable": false,
      "stateMutability": "nonpayable",
      "type": "function"
    }
  ],
  "bytecode": "0x6080604052600160055573faa502ebe96601782a34b1a947b676fb4e9d090c600660006101000a81548173ffffffffffffffffffffffffffffffffffffffff021916908373ffffffffffffffffffffffffffffffffffffffff1602179055506000600760006101000a81548173ffffffffffffffffffffffffffffffffffffffff021916908373ffffffffffffffffffffffffffffffffffffffff1602179055506000600860006101000a81548173ffffffffffffffffffffffffffffffffffffffff021916908373ffffffffffffffffffffffffffffffffffffffff1602179055506000600960006101000a81548173ffffffffffffffffffffffffffffffffffffffff021916908373ffffffffffffffffffffffffffffffffffffffff1602179055506000600a60006101000a81548173ffffffffffffffffffffffffffffffffffffffff021916908373ffffffffffffffffffffffffffffffffffffffff1602179055503480156200017357600080fd5b50604051602080620051a5833981018060405260208110156200019557600080fd5b81019080805190602001909291905050506200026b60405180608001604052806040518060400160405280601e81526020017f4772616e74205065726d697373696f6e20746f207468652042726f6b6572000081525081526020016040518060400160405280600181526020017f31000000000000000000000000000000000000000000000000000000000000008152508152602001838152602001735e72914535f202659083db3a02c984188fa26e9f73ffffffffffffffffffffffffffffffffffffffff16815250620003f260201b60201c565b600b819055506200031a6040518060800160405280604051806060016040528060238152602001620051306023913981526020016040518060400160405280600181526020017f31000000000000000000000000000000000000000000000000000000000000008152508152602001838152602001735e72914535f202659083db3a02c984188fa26e9f73ffffffffffffffffffffffffffffffffffffffff16815250620003f260201b60201c565b600c81905550620003e560405180608001604052806040518060400160405280601e81526020017f47697665204261636b204974656d202857696c6c206265206275726e7429000081525081526020016040518060400160405280600181526020017f31000000000000000000000000000000000000000000000000000000000000008152508152602001838152602001735e72914535f202659083db3a02c984188fa26e9f73ffffffffffffffffffffffffffffffffffffffff16815250620003f260201b60201c565b600d8190555050620004ab565b60006060604051808062005153605291396052019050604051809103902083600001518051906020012084602001518051906020012085604001518660600151604051602001808681526020018581526020018481526020018381526020018273ffffffffffffffffffffffffffffffffffffffff1673ffffffffffffffffffffffffffffffffffffffff1681526020019550505050505060405160208183030381529060405290508080519060200120915050919050565b614c7580620004bb6000396000f3fe608060405234801561001057600080fd5b50600436106101f05760003560e01c806386fc5b3a1161010f578063c9134fd8116100a2578063db69e7cd11610071578063db69e7cd14610a0c578063dbc515f914610ab1578063e0855a2614610af7578063f4e6b37314610b15576101f0565b8063c9134fd8146108c0578063ca7330e214610947578063cb805840146109ac578063d67abb05146109ca576101f0565b80639d589b3e116100de5780639d589b3e14610814578063a5692d6314610842578063affed0e014610884578063c00847fa146108a2576101f0565b806386fc5b3a146106a65780638b056c2d1461070b5780638e61b551146107635780639a6b7856146107d2576101f0565b806349946b5f1161018757806359b99ea11161015657806359b99ea114610527578063619994081461058c5780636a8f4c34146105f1578063852b5f9514610660576101f0565b806349946b5f146103cf57806357d9f6ea1461043f57806358aac132146104a45780635922ecda146104c2576101f0565b80632a85574c116101c35780632a85574c146102b25780632f443c48146103005780633d4d36001461036f5780633fcaeca5146103b1576101f0565b80630fdc8e68146101f257806319326ef7146102105780631ed23c8c14610276578063250f125014610294575b005b6101fa610b84565b6040518082815260200191505060405180910390f35b61025c6004803603604081101561022657600080fd5b8101908080359060200190929190803573ffffffffffffffffffffffffffffffffffffffff169060200190929190505050610ba0565b604051808215151515815260200191505060405180910390f35b61027e610c9c565b6040518082815260200191505060405180910390f35b61029c610cb8565b6040518082815260200191505060405180910390f35b6102fe600480360360408110156102c857600080fd5b81019080803573ffffffffffffffffffffffffffffffffffffffff16906020019092919080359060200190929190505050610cf1565b005b61036d600480360360a081101561031657600080fd5b81019080803573ffffffffffffffffffffffffffffffffffffffff16906020019092919080359060200190929190803560ff169060200190929190803590602001909291908035906020019092919050505061121d565b005b61039b6004803603602081101561038557600080fd5b810190808035906020019092919050505061173d565b6040518082815260200191505060405180910390f35b6103b961175b565b6040518082815260200191505060405180910390f35b610425600480360360608110156103e557600080fd5b81019080803573ffffffffffffffffffffffffffffffffffffffff1690602001909291908035906020019092919080359060200190929190505050611765565b604051808215151515815260200191505060405180910390f35b6104a26004803603608081101561045557600080fd5b81019080803573ffffffffffffffffffffffffffffffffffffffff169060200190929190803560ff1690602001909291908035906020019092919080359060200190929190505050611d45565b005b6104ac611e9e565b6040518082815260200191505060405180910390f35b610525600480360360808110156104d857600080fd5b81019080803573ffffffffffffffffffffffffffffffffffffffff169060200190929190803560ff1690602001909291908035906020019092919080359060200190929190505050611eba565b005b61058a6004803603608081101561053d57600080fd5b81019080803573ffffffffffffffffffffffffffffffffffffffff169060200190929190803560ff1690602001909291908035906020019092919080359060200190929190505050612013565b005b6105b8600480360360208110156105a257600080fd5b810190808035906020019092919050505061216c565b60405180878152602001868152602001858152602001848152602001838152602001828152602001965050505050505060405180910390f35b61065e600480360360c081101561060757600080fd5b810190808060a001906005806020026040519081016040528092919082600560200280828437600081840152601f19601f820116905080830192505050505050919291929080359060200190929190505050612255565b005b61068c6004803603602081101561067657600080fd5b81019080803590602001909291905050506129aa565b604051808215151515815260200191505060405180910390f35b610709600480360360808110156106bc57600080fd5b81019080803573ffffffffffffffffffffffffffffffffffffffff169060200190929190803560ff16906020019092919080359060200190929190803590602001909291905050506129cb565b005b61074d6004803603602081101561072157600080fd5b81019080803573ffffffffffffffffffffffffffffffffffffffff169060200190929190505050612b24565b6040518082815260200191505060405180910390f35b6107d0600480360360a081101561077957600080fd5b8101908080359060200190929190803573ffffffffffffffffffffffffffffffffffffffff169060200190929190803560ff1690602001909291908035906020019092919080359060200190929190505050612b92565b005b6107fe600480360360208110156107e857600080fd5b81019080803590602001909291905050506131b7565b6040518082815260200191505060405180910390f35b6108406004803603602081101561082a57600080fd5b81019080803590602001909291905050506131d5565b005b61086e6004803603602081101561085857600080fd5b8101908080359060200190929190505050613835565b6040518082815260200191505060405180910390f35b61088c61384d565b6040518082815260200191505060405180910390f35b6108aa613853565b6040518082815260200191505060405180910390f35b61092d600480360360c08110156108d657600080fd5b810190808060a001906005806020026040519081016040528092919082600560200280828437600081840152601f19601f820116905080830192505050505050919291929080359060200190929190505050613859565b604051808215151515815260200191505060405180910390f35b6109aa6004803603608081101561095d57600080fd5b81019080803573ffffffffffffffffffffffffffffffffffffffff169060200190929190803560ff1690602001909291908035906020019092919080359060200190929190505050614092565b005b6109b46141eb565b6040518082815260200191505060405180910390f35b6109f6600480360360208110156109e057600080fd5b81019080803590602001909291905050506141f1565b6040518082815260200191505060405180910390f35b610a6f60048036036080811015610a2257600080fd5b81019080803573ffffffffffffffffffffffffffffffffffffffff169060200190929190803560ff1690602001909291908035906020019092919080359060200190929190505050614209565b604051808273ffffffffffffffffffffffffffffffffffffffff1673ffffffffffffffffffffffffffffffffffffffff16815260200191505060405180910390f35b610add60048036036020811015610ac757600080fd5b81019080803590602001909291905050506142e0565b604051808215151515815260200191505060405180910390f35b610aff614300565b6040518082815260200191505060405180910390f35b610b82600480360360a0811015610b2b57600080fd5b81019080803573ffffffffffffffffffffffffffffffffffffffff16906020019092919080359060200190929190803560ff1690602001909291908035906020019092919080359060200190929190505050614306565b005b6040518080614bda602691396026019050604051809103902081565b6000600860009054906101000a900473ffffffffffffffffffffffffffffffffffffffff1673ffffffffffffffffffffffffffffffffffffffff16632b3f1e0e836040518263ffffffff1660e01b8152600401808273ffffffffffffffffffffffffffffffffffffffff1673ffffffffffffffffffffffffffffffffffffffff16815260200191505060206040518083038186803b158015610c4157600080fd5b505afa158015610c55573d6000803e3d6000fd5b505050506040513d6020811015610c6b57600080fd5b8101908080519060200190929190505050600080858152602001908152602001600020600001541415905092915050565b6040518080614af5605291396052019050604051809103902081565b60405180807f476976654261636b2875696e74206974656d49442c75696e74206e6f6e6365298152506020019050604051809103902081565b600960009054906101000a900473ffffffffffffffffffffffffffffffffffffffff1673ffffffffffffffffffffffffffffffffffffffff163373ffffffffffffffffffffffffffffffffffffffff1614610d97576040517f08c379a000000000000000000000000000000000000000000000000000000000815260040180806020018281038252602a815260200180614a06602a913960400191505060405180910390fd5b600115156001600083815260200190815260200160002060009054906101000a900460ff16151514610e31576040517f08c379a000000000000000000000000000000000000000000000000000000000815260040180806020018281038252600e8152602001807f4974656d206e6f7420666f756e6400000000000000000000000000000000000081525060200191505060405180910390fd5b6000600260008381526020019081526020016000205411610eba576040517f08c379a00000000000000000000000000000000000000000000000000000000081526004018080602001828103825260178152602001807f42726f6b6572206e6f7420636f6e74726f6c204974656d00000000000000000081525060200191505060405180910390fd5b6000600860009054906101000a900473ffffffffffffffffffffffffffffffffffffffff1673ffffffffffffffffffffffffffffffffffffffff16632b3f1e0e846040518263ffffffff1660e01b8152600401808273ffffffffffffffffffffffffffffffffffffffff1673ffffffffffffffffffffffffffffffffffffffff16815260200191505060206040518083038186803b158015610f5b57600080fd5b505afa158015610f6f573d6000803e3d6000fd5b505050506040513d6020811015610f8557600080fd5b810190808051906020019092919050505090506000811161100e576040517f08c379a00000000000000000000000000000000000000000000000000000000081526004018080602001828103825260108152602001807f506c61796572206e6f7420666f756e640000000000000000000000000000000081525060200191505060405180910390fd5b600260008381526020019081526020016000206000905580600080848152602001908152602001600020600001819055506060600860009054906101000a900473ffffffffffffffffffffffffffffffffffffffff1673ffffffffffffffffffffffffffffffffffffffff1663f5e889aa856040518263ffffffff1660e01b8152600401808273ffffffffffffffffffffffffffffffffffffffff1673ffffffffffffffffffffffffffffffffffffffff16815260200191505060006040518083038186803b1580156110e057600080fd5b505afa1580156110f4573d6000803e3d6000fd5b505050506040513d6000823e3d601f19601f82011682018060405250602081101561111e57600080fd5b81019080805164010000000081111561113657600080fd5b8281019050602081018481111561114c57600080fd5b815185600182028301116401000000008211171561116957600080fd5b505092919050505090507f7e395fa95055156e06a37d383ea87d2035ae9641ecac8c7c204dbc35e43a4f6a83826040518083815260200180602001828103825283818151815260200191508051906020019080838360005b838110156111dc5780820151818401526020810190506111c1565b50505050905090810190601f1680156112095780820380516001836020036101000a031916815260200191505b50935050505060405180910390a150505050565b600115156001600086815260200190815260200160002060009054906101000a900460ff161515146112b7576040517f08c379a000000000000000000000000000000000000000000000000000000000815260040180806020018281038252600e8152602001807f4974656d206e6f7420666f756e6400000000000000000000000000000000000081525060200191505060405180910390fd5b6000600860009054906101000a900473ffffffffffffffffffffffffffffffffffffffff1673ffffffffffffffffffffffffffffffffffffffff16632b3f1e0e876040518263ffffffff1660e01b8152600401808273ffffffffffffffffffffffffffffffffffffffff1673ffffffffffffffffffffffffffffffffffffffff16815260200191505060206040518083038186803b15801561135857600080fd5b505afa15801561136c573d6000803e3d6000fd5b505050506040513d602081101561138257600080fd5b81019080805190602001909291905050509050806000808781526020019081526020016000206000015414611402576040517f08c379a000000000000000000000000000000000000000000000000000000000815260040180806020018281038252603e815260200180614b6e603e913960400191505060405180910390fd5b6000600d54611424876003600086815260200190815260200160002054614805565b60405160200180807f190100000000000000000000000000000000000000000000000000000000000081525060020183815260200182815260200192505050604051602081830303815290604052805190602001209050611488818887878761487b565b6114fa576040517f08c379a00000000000000000000000000000000000000000000000000000000081526004018080602001828103825260138152602001807f566572696669636174696f6e204661696c65640000000000000000000000000081525060200191505060405180910390fd5b600080600088815260200190815260200160002060000181905550816002600088815260200190815260200160002081905550600160036000848152602001908152602001600020540160036000848152602001908152602001600020819055506060600860009054906101000a900473ffffffffffffffffffffffffffffffffffffffff1673ffffffffffffffffffffffffffffffffffffffff1663f5e889aa896040518263ffffffff1660e01b8152600401808273ffffffffffffffffffffffffffffffffffffffff1673ffffffffffffffffffffffffffffffffffffffff16815260200191505060006040518083038186803b1580156115fc57600080fd5b505afa158015611610573d6000803e3d6000fd5b505050506040513d6000823e3d601f19601f82011682018060405250602081101561163a57600080fd5b81019080805164010000000081111561165257600080fd5b8281019050602081018481111561166857600080fd5b815185600182028301116401000000008211171561168557600080fd5b505092919050505090507fe35b21ae0d1c4f625eaf3c9f9f6664bc94427a3a2b1bff30175cc6d94ccec0f587826040518083815260200180602001828103825283818151815260200191508051906020019080838360005b838110156116f85780820151818401526020810190506116dd565b50505050905090810190601f1680156117255780820380516001836020036101000a031916815260200191505b50935050505060405180910390a15050505050505050565b60006020528060005260406000206000915090508060000154905081565b6000600554905090565b6000600660009054906101000a900473ffffffffffffffffffffffffffffffffffffffff1673ffffffffffffffffffffffffffffffffffffffff163373ffffffffffffffffffffffffffffffffffffffff161461180d576040517f08c379a0000000000000000000000000000000000000000000000000000000008152600401808060200182810382526024815260200180614a5b6024913960400191505060405180910390fd5b60008311611883576040517f08c379a000000000000000000000000000000000000000000000000000000000815260040180806020018281038252601e8152602001807f4974656d204944206d7573742062652067726561746572207468616e2030000081525060200191505060405180910390fd5b600015156001600085815260200190815260200160002060009054906101000a900460ff16151514611900576040517f08c379a0000000000000000000000000000000000000000000000000000000008152600401808060200182810382526022815260200180614c286022913960400191505060405180910390fd5b6000600860009054906101000a900473ffffffffffffffffffffffffffffffffffffffff1673ffffffffffffffffffffffffffffffffffffffff16632b3f1e0e866040518263ffffffff1660e01b8152600401808273ffffffffffffffffffffffffffffffffffffffff1673ffffffffffffffffffffffffffffffffffffffff16815260200191505060206040518083038186803b1580156119a157600080fd5b505afa1580156119b5573d6000803e3d6000fd5b505050506040513d60208110156119cb57600080fd5b8101908080519060200190929190505050905060008111611a54576040517f08c379a00000000000000000000000000000000000000000000000000000000081526004018080602001828103825260108152602001807f506c61796572206e6f7420666f756e640000000000000000000000000000000081525060200191505060405180910390fd5b6000831115611aff57806000808581526020019081526020016000206000015414611aca576040517f08c379a0000000000000000000000000000000000000000000000000000000008152600401808060200182810382526033815260200180614a7f6033913960400191505060405180910390fd5b600080848152602001908152602001600020600080820160009055505060026000848152602001908152602001600020600090555b60405180602001604052808281525060008086815260200190815260200160002060008201518160000155905050600180600086815260200190815260200160002060006101000a81548160ff0219169083151502179055506060600860009054906101000a900473ffffffffffffffffffffffffffffffffffffffff1673ffffffffffffffffffffffffffffffffffffffff1663f5e889aa876040518263ffffffff1660e01b8152600401808273ffffffffffffffffffffffffffffffffffffffff1673ffffffffffffffffffffffffffffffffffffffff16815260200191505060006040518083038186803b158015611bf957600080fd5b505afa158015611c0d573d6000803e3d6000fd5b505050506040513d6000823e3d601f19601f820116820180604052506020811015611c3757600080fd5b810190808051640100000000811115611c4f57600080fd5b82810190506020810184811115611c6557600080fd5b8151856001820283011164010000000082111715611c8257600080fd5b505092919050505090507f9d997020c99a3f8b66a77e449bcdec38768a88e3470145435115473eece3cb588582866040518084815260200180602001838152602001828103825284818151815260200191508051906020019080838360005b83811015611cfc578082015181840152602081019050611ce1565b50505050905090810190601f168015611d295780820380516001836020036101000a031916815260200191505b5094505050505060405180910390a16001925050509392505050565b600084600554604051602001808373ffffffffffffffffffffffffffffffffffffffff1673ffffffffffffffffffffffffffffffffffffffff1660601b815260140182815260200192505050604051602081830303815290604052805190602001209050611dd881600660009054906101000a900473ffffffffffffffffffffffffffffffffffffffff1686868661487b565b611e4a576040517f08c379a00000000000000000000000000000000000000000000000000000000081526004018080602001828103825260138152602001807f566572696669636174696f6e204661696c65640000000000000000000000000081525060200191505060405180910390fd5b60016005540160058190555084600a60006101000a81548173ffffffffffffffffffffffffffffffffffffffff021916908373ffffffffffffffffffffffffffffffffffffffff1602179055505050505050565b6040518080614b47602791396027019050604051809103902081565b600084600554604051602001808373ffffffffffffffffffffffffffffffffffffffff1673ffffffffffffffffffffffffffffffffffffffff1660601b815260140182815260200192505050604051602081830303815290604052805190602001209050611f4d81600660009054906101000a900473ffffffffffffffffffffffffffffffffffffffff1686868661487b565b611fbf576040517f08c379a00000000000000000000000000000000000000000000000000000000081526004018080602001828103825260138152602001807f566572696669636174696f6e204661696c65640000000000000000000000000081525060200191505060405180910390fd5b60016005540160058190555084600760006101000a81548173ffffffffffffffffffffffffffffffffffffffff021916908373ffffffffffffffffffffffffffffffffffffffff1602179055505050505050565b600084600554604051602001808373ffffffffffffffffffffffffffffffffffffffff1673ffffffffffffffffffffffffffffffffffffffff1660601b8152601401828152602001925050506040516020818303038152906040528051906020012090506120a681600660009054906101000a900473ffffffffffffffffffffffffffffffffffffffff1686868661487b565b612118576040517f08c379a00000000000000000000000000000000000000000000000000000000081526004018080602001828103825260138152602001807f566572696669636174696f6e204661696c65640000000000000000000000000081525060200191505060405180910390fd5b60016005540160058190555084600860006101000a81548173ffffffffffffffffffffffffffffffffffffffff021916908373ffffffffffffffffffffffffffffffffffffffff1602179055505050505050565b6000806000806000806004600088815260200190815260200160002060000154600460008981526020019081526020016000206001016000600581106121ae57fe5b0154600460008a81526020019081526020016000206001016001600581106121d257fe5b0154600460008b81526020019081526020016000206001016002600581106121f657fe5b0154600460008c815260200190815260200160002060010160036005811061221a57fe5b0154600460008d815260200190815260200160002060010160046005811061223e57fe5b015495509550955095509550955091939550919395565b600660009054906101000a900473ffffffffffffffffffffffffffffffffffffffff1673ffffffffffffffffffffffffffffffffffffffff163373ffffffffffffffffffffffffffffffffffffffff16146122fb576040517f08c379a000000000000000000000000000000000000000000000000000000000815260040180806020018281038252603e8152602001806149c8603e913960400191505060405180910390fd5b60008111612371576040517f08c379a000000000000000000000000000000000000000000000000000000000815260040180806020018281038252601e8152602001807f4865726f2049442073686f756c6420626520677265617465722074686174000081525060200191505060405180910390fd5b60006004600083815260200190815260200160002060000154146123fd576040517f08c379a000000000000000000000000000000000000000000000000000000000815260040180806020018281038252601d8152602001807f4865726f20686173206c6f636b6564206974656d7320616c726561647900000081525060200191505060405180910390fd5b60008090506000600760009054906101000a900473ffffffffffffffffffffffffffffffffffffffff1673ffffffffffffffffffffffffffffffffffffffff16636352211e846040518263ffffffff1660e01b81526004018082815260200191505060206040518083038186803b15801561247757600080fd5b505afa15801561248b573d6000803e3d6000fd5b505050506040513d60208110156124a157600080fd5b810190808051906020019092919050505090506000600860009054906101000a900473ffffffffffffffffffffffffffffffffffffffff1673ffffffffffffffffffffffffffffffffffffffff16632b3f1e0e836040518263ffffffff1660e01b8152600401808273ffffffffffffffffffffffffffffffffffffffff1673ffffffffffffffffffffffffffffffffffffffff16815260200191505060206040518083038186803b15801561255557600080fd5b505afa158015612569573d6000803e3d6000fd5b505050506040513d602081101561257f57600080fd5b8101908080519060200190929190505050905060008090505b60058110156126f25760008682600581106125af57fe5b602002015111156126e55760011515600160008884600581106125ce57fe5b6020020151815260200190815260200160002060009054906101000a900460ff16151514612664576040517f08c379a00000000000000000000000000000000000000000000000000000000081526004018080602001828103825260138152602001807f4974656d20646f6573206e6f742065786973740000000000000000000000000081525060200191505060405180910390fd5b60008087836005811061267357fe5b602002015181526020019081526020016000206000015493508184146126e4576040517f08c379a000000000000000000000000000000000000000000000000000000000815260040180806020018281038252602b815260200180614a30602b913960400191505060405180910390fd5b5b8080600101915050612598565b506000831415612704575050506129a6565b604051806040016040528082815260200186815250600460008681526020019081526020016000206000820151816000015560208201518160010190600561274d92919061491d565b5090505060008090505b600581101561279857600080600088846005811061277157fe5b60200201518152602001908152602001600020600001819055508080600101915050612757565b506060600860009054906101000a900473ffffffffffffffffffffffffffffffffffffffff1673ffffffffffffffffffffffffffffffffffffffff1663f5e889aa846040518263ffffffff1660e01b8152600401808273ffffffffffffffffffffffffffffffffffffffff1673ffffffffffffffffffffffffffffffffffffffff16815260200191505060006040518083038186803b15801561283a57600080fd5b505afa15801561284e573d6000803e3d6000fd5b505050506040513d6000823e3d601f19601f82011682018060405250602081101561287857600080fd5b81019080805164010000000081111561289057600080fd5b828101905060208101848111156128a657600080fd5b81518560018202830111640100000000821117156128c357600080fd5b505092919050505090507f0bbed2a9dc665dd323636b53b54017dfa18142fc1ce0c8ce0dddf3ba3ede6dda8587836040518084815260200183600560200280838360005b83811015612922578082015181840152602081019050612907565b5050505090500180602001828103825283818151815260200191508051906020019080838360005b8381101561296557808201518184015260208101905061294a565b50505050905090810190601f1680156129925780820380516001836020036101000a031916815260200191505b5094505050505060405180910390a1505050505b5050565b60008060008084815260200190815260200160002060000154119050919050565b600084600554604051602001808373ffffffffffffffffffffffffffffffffffffffff1673ffffffffffffffffffffffffffffffffffffffff1660601b815260140182815260200192505050604051602081830303815290604052805190602001209050612a5e81600660009054906101000a900473ffffffffffffffffffffffffffffffffffffffff1686868661487b565b612ad0576040517f08c379a00000000000000000000000000000000000000000000000000000000081526004018080602001828103825260138152602001807f566572696669636174696f6e204661696c65640000000000000000000000000081525060200191505060405180910390fd5b60016005540160058190555084600660006101000a81548173ffffffffffffffffffffffffffffffffffffffff021916908373ffffffffffffffffffffffffffffffffffffffff1602179055505050505050565b60008082600554604051602001808373ffffffffffffffffffffffffffffffffffffffff1673ffffffffffffffffffffffffffffffffffffffff1660601b81526014018281526020019250505060405160208183030381529060405280519060200120905080915050919050565b6000600860009054906101000a900473ffffffffffffffffffffffffffffffffffffffff1673ffffffffffffffffffffffffffffffffffffffff16632b3f1e0e866040518263ffffffff1660e01b8152600401808273ffffffffffffffffffffffffffffffffffffffff1673ffffffffffffffffffffffffffffffffffffffff16815260200191505060206040518083038186803b158015612c3357600080fd5b505afa158015612c47573d6000803e3d6000fd5b505050506040513d6020811015612c5d57600080fd5b8101908080519060200190929190505050905060008111612ce6576040517f08c379a000000000000000000000000000000000000000000000000000000000815260040180806020018281038252600d8152602001807f4e6f206865726f20666f756e640000000000000000000000000000000000000081525060200191505060405180910390fd5b600080878152602001908152602001600020600001548114612d70576040517f08c379a000000000000000000000000000000000000000000000000000000000815260040180806020018281038252601c8152602001807f4974656d206e6f742062656c6f6e6720746f20746865206f776e65720000000081525060200191505060405180910390fd5b600a60009054906101000a900473ffffffffffffffffffffffffffffffffffffffff1673ffffffffffffffffffffffffffffffffffffffff1663fb595949876040518263ffffffff1660e01b815260040180828152602001915050602060405180830381600087803b158015612de557600080fd5b505af1158015612df9573d6000803e3d6000fd5b505050506040513d6020811015612e0f57600080fd5b8101908080519060200190929190505050612e92576040517f08c379a00000000000000000000000000000000000000000000000000000000081526004018080602001828103825260148152602001807f4974656d206e6f7420636f6c6c65637461626c6500000000000000000000000081525060200191505060405180910390fd5b6000600d54612eb4886003600086815260200190815260200160002054614805565b60405160200180807f190100000000000000000000000000000000000000000000000000000000000081525060020183815260200182815260200192505050604051602081830303815290604052805190602001209050612f18818787878761487b565b612f8a576040517f08c379a00000000000000000000000000000000000000000000000000000000081526004018080602001828103825260138152602001807f566572696669636174696f6e204661696c65640000000000000000000000000081525060200191505060405180910390fd5b6000808881526020019081526020016000206000808201600090555050600160036000848152602001908152602001600020540160036000848152602001908152602001600020819055506060600860009054906101000a900473ffffffffffffffffffffffffffffffffffffffff1673ffffffffffffffffffffffffffffffffffffffff1663f5e889aa886040518263ffffffff1660e01b8152600401808273ffffffffffffffffffffffffffffffffffffffff1673ffffffffffffffffffffffffffffffffffffffff16815260200191505060006040518083038186803b15801561307657600080fd5b505afa15801561308a573d6000803e3d6000fd5b505050506040513d6000823e3d601f19601f8201168201806040525060208110156130b457600080fd5b8101908080516401000000008111156130cc57600080fd5b828101905060208101848111156130e257600080fd5b81518560018202830111640100000000821117156130ff57600080fd5b505092919050505090507ff1122aabdbb1ef22a96982c84e7084ad69c6a571f29a7d36f9c4ee0c9e3416d288826040518083815260200180602001828103825283818151815260200191508051906020019080838360005b83811015613172578082015181840152602081019050613157565b50505050905090810190601f16801561319f5780820380516001836020036101000a031916815260200191505b50935050505060405180910390a15050505050505050565b60046020528060005260406000206000915090508060000154905081565b6000600460008381526020019081526020016000206000015411613261576040517f08c379a000000000000000000000000000000000000000000000000000000000815260040180806020018281038252600f8152602001807f4e6f206c6f636b6564206974656d73000000000000000000000000000000000081525060200191505060405180910390fd5b6000600760009054906101000a900473ffffffffffffffffffffffffffffffffffffffff1673ffffffffffffffffffffffffffffffffffffffff16636352211e836040518263ffffffff1660e01b81526004018082815260200191505060206040518083038186803b1580156132d657600080fd5b505afa1580156132ea573d6000803e3d6000fd5b505050506040513d602081101561330057600080fd5b810190808051906020019092919050505090506000600860009054906101000a900473ffffffffffffffffffffffffffffffffffffffff1673ffffffffffffffffffffffffffffffffffffffff16632b3f1e0e836040518263ffffffff1660e01b8152600401808273ffffffffffffffffffffffffffffffffffffffff1673ffffffffffffffffffffffffffffffffffffffff16815260200191505060206040518083038186803b1580156133b457600080fd5b505afa1580156133c8573d6000803e3d6000fd5b505050506040513d60208110156133de57600080fd5b8101908080519060200190929190505050905060008111613467576040517f08c379a00000000000000000000000000000000000000000000000000000000081526004018080602001828103825260148152602001807f4865726f206f776e6572206e6f7420666f756e6400000000000000000000000081525060200191505060405180910390fd5b600660009054906101000a900473ffffffffffffffffffffffffffffffffffffffff1673ffffffffffffffffffffffffffffffffffffffff163373ffffffffffffffffffffffffffffffffffffffff1614806134ee57508173ffffffffffffffffffffffffffffffffffffffff163373ffffffffffffffffffffffffffffffffffffffff16145b613543576040517f08c379a0000000000000000000000000000000000000000000000000000000008152600401808060200182810382526043815260200180614ab26043913960600191505060405180910390fd5b60008090505b600581101561359b578160008060046000888152602001908152602001600020600101846005811061357757fe5b01548152602001908152602001600020600001819055508080600101915050613549565b506135a461495d565b600460008581526020019081526020016000206001016005806020026040519081016040528092919082600580156135f1576020028201915b8154815260200190600101908083116135dd575b5050505050905060046000858152602001908152602001600020600080820160009055600182016000613624919061497f565b50506060600860009054906101000a900473ffffffffffffffffffffffffffffffffffffffff1673ffffffffffffffffffffffffffffffffffffffff1663f5e889aa856040518263ffffffff1660e01b8152600401808273ffffffffffffffffffffffffffffffffffffffff1673ffffffffffffffffffffffffffffffffffffffff16815260200191505060006040518083038186803b1580156136c757600080fd5b505afa1580156136db573d6000803e3d6000fd5b505050506040513d6000823e3d601f19601f82011682018060405250602081101561370557600080fd5b81019080805164010000000081111561371d57600080fd5b8281019050602081018481111561373357600080fd5b815185600182028301116401000000008211171561375057600080fd5b505092919050505090507f52848e5ad5a22a8b020a8b82aa52427915066c8df362cae4a9cc01af96ff40048583836040518084815260200183600560200280838360005b838110156137af578082015181840152602081019050613794565b5050505090500180602001828103825283818151815260200191508051906020019080838360005b838110156137f25780820151818401526020810190506137d7565b50505050905090810190601f16801561381f5780820380516001836020036101000a031916815260200191505b5094505050505060405180910390a15050505050565b60026020528060005260406000206000915090505481565b60055481565b600b5481565b6000600660009054906101000a900473ffffffffffffffffffffffffffffffffffffffff1673ffffffffffffffffffffffffffffffffffffffff163373ffffffffffffffffffffffffffffffffffffffff1614613901576040517f08c379a000000000000000000000000000000000000000000000000000000000815260040180806020018281038252603e8152602001806149c8603e913960400191505060405180910390fd5b600060046000848152602001908152602001600020600001541461398d576040517f08c379a00000000000000000000000000000000000000000000000000000000081526004018080602001828103825260108152602001807f486173204c6f636b6564204974656d730000000000000000000000000000000081525060200191505060405180910390fd5b60008090505b6005811015613a535760001515600160008684600581106139b057fe5b6020020151815260200190815260200160002060009054906101000a900460ff16151514613a46576040517f08c379a000000000000000000000000000000000000000000000000000000000815260040180806020018281038252600b8152602001807f4974656d2065786973747300000000000000000000000000000000000000000081525060200191505060405180910390fd5b8080600101915050613993565b506000600760009054906101000a900473ffffffffffffffffffffffffffffffffffffffff1673ffffffffffffffffffffffffffffffffffffffff16636352211e846040518263ffffffff1660e01b81526004018082815260200191505060206040518083038186803b158015613ac957600080fd5b505afa158015613add573d6000803e3d6000fd5b505050506040513d6020811015613af357600080fd5b81019080805190602001909291905050509050600073ffffffffffffffffffffffffffffffffffffffff168173ffffffffffffffffffffffffffffffffffffffff161415613b8c576040517f08c379a0000000000000000000000000000000000000000000000000000000008152600401808060200182810382526028815260200180614c006028913960400191505060405180910390fd5b6000600860009054906101000a900473ffffffffffffffffffffffffffffffffffffffff1673ffffffffffffffffffffffffffffffffffffffff16632b3f1e0e836040518263ffffffff1660e01b8152600401808273ffffffffffffffffffffffffffffffffffffffff1673ffffffffffffffffffffffffffffffffffffffff16815260200191505060206040518083038186803b158015613c2d57600080fd5b505afa158015613c41573d6000803e3d6000fd5b505050506040513d6020811015613c5757600080fd5b8101908080519060200190929190505050905060008111613ce0576040517f08c379a000000000000000000000000000000000000000000000000000000000815260040180806020018281038252601c8152602001807f4865726f206f776e6572206973206e6f7420726567697374657265640000000081525060200191505060405180910390fd5b6040518060400160405280828152602001868152506004600086815260200190815260200160002060008201518160000155602082015181600101906005613d2992919061491d565b509050506060600860009054906101000a900473ffffffffffffffffffffffffffffffffffffffff1673ffffffffffffffffffffffffffffffffffffffff1663f5e889aa846040518263ffffffff1660e01b8152600401808273ffffffffffffffffffffffffffffffffffffffff1673ffffffffffffffffffffffffffffffffffffffff16815260200191505060006040518083038186803b158015613dce57600080fd5b505afa158015613de2573d6000803e3d6000fd5b505050506040513d6000823e3d601f19601f820116820180604052506020811015613e0c57600080fd5b810190808051640100000000811115613e2457600080fd5b82810190506020810184811115613e3a57600080fd5b8151856001820283011164010000000082111715613e5757600080fd5b5050929190505050905060008090505b6005811015613fb45760405180602001604052806000815250600080898460058110613e8f57fe5b60200201518152602001908152602001600020600082015181600001559050506001806000898460058110613ec057fe5b6020020151815260200190815260200160002060006101000a81548160ff0219169083151502179055507f9d997020c99a3f8b66a77e449bcdec38768a88e3470145435115473eece3cb58878260058110613f1757fe5b60200201518360006040518084815260200180602001838152602001828103825284818151815260200191508051906020019080838360005b83811015613f6b578082015181840152602081019050613f50565b50505050905090810190601f168015613f985780820380516001836020036101000a031916815260200191505b5094505050505060405180910390a18080600101915050613e67565b507f0bbed2a9dc665dd323636b53b54017dfa18142fc1ce0c8ce0dddf3ba3ede6dda8587836040518084815260200183600560200280838360005b8381101561400a578082015181840152602081019050613fef565b5050505090500180602001828103825283818151815260200191508051906020019080838360005b8381101561404d578082015181840152602081019050614032565b50505050905090810190601f16801561407a5780820380516001836020036101000a031916815260200191505b5094505050505060405180910390a150505092915050565b600084600554604051602001808373ffffffffffffffffffffffffffffffffffffffff1673ffffffffffffffffffffffffffffffffffffffff1660601b81526014018281526020019250505060405160208183030381529060405280519060200120905061412581600660009054906101000a900473ffffffffffffffffffffffffffffffffffffffff1686868661487b565b614197576040517f08c379a00000000000000000000000000000000000000000000000000000000081526004018080602001828103825260138152602001807f566572696669636174696f6e204661696c65640000000000000000000000000081525060200191505060405180910390fd5b60016005540160058190555084600960006101000a81548173ffffffffffffffffffffffffffffffffffffffff021916908373ffffffffffffffffffffffffffffffffffffffff1602179055505050505050565b600d5481565b60036020528060005260406000206000915090505481565b60008085600554604051602001808373ffffffffffffffffffffffffffffffffffffffff1673ffffffffffffffffffffffffffffffffffffffff1660601b81526014018281526020019250505060405160208183030381529060405280519060200120905060018186868660405160008152602001604052604051808581526020018460ff1660ff1681526020018381526020018281526020019450505050506020604051602081039080840390855afa1580156142cb573d6000803e3d6000fd5b50505060206040510351915050949350505050565b60016020528060005260406000206000915054906101000a900460ff1681565b600c5481565b600115156001600086815260200190815260200160002060009054906101000a900460ff16151514614383576040517f08c379a000000000000000000000000000000000000000000000000000000000815260040180806020018281038252602e815260200180614bac602e913960400191505060405180910390fd5b6000600860009054906101000a900473ffffffffffffffffffffffffffffffffffffffff1673ffffffffffffffffffffffffffffffffffffffff16632b3f1e0e876040518263ffffffff1660e01b8152600401808273ffffffffffffffffffffffffffffffffffffffff1673ffffffffffffffffffffffffffffffffffffffff16815260200191505060206040518083038186803b15801561442457600080fd5b505afa158015614438573d6000803e3d6000fd5b505050506040513d602081101561444e57600080fd5b81019080805190602001909291905050509050806002600087815260200190815260200160002054146144cc576040517f08c379a000000000000000000000000000000000000000000000000000000000815260040180806020018281038252603e815260200180614b6e603e913960400191505060405180910390fd5b6000600c546144ee876003600086815260200190815260200160002054614805565b60405160200180807f190100000000000000000000000000000000000000000000000000000000000081525060020183815260200182815260200192505050604051602081830303815290604052805190602001209050614552818887878761487b565b6145c4576040517f08c379a00000000000000000000000000000000000000000000000000000000081526004018080602001828103825260138152602001807f566572696669636174696f6e204661696c65640000000000000000000000000081525060200191505060405180910390fd5b60026000878152602001908152602001600020600090558160008088815260200190815260200160002060000181905550600160036000848152602001908152602001600020540160036000848152602001908152602001600020819055506060600860009054906101000a900473ffffffffffffffffffffffffffffffffffffffff1673ffffffffffffffffffffffffffffffffffffffff1663f5e889aa896040518263ffffffff1660e01b8152600401808273ffffffffffffffffffffffffffffffffffffffff1673ffffffffffffffffffffffffffffffffffffffff16815260200191505060006040518083038186803b1580156146c457600080fd5b505afa1580156146d8573d6000803e3d6000fd5b505050506040513d6000823e3d601f19601f82011682018060405250602081101561470257600080fd5b81019080805164010000000081111561471a57600080fd5b8281019050602081018481111561473057600080fd5b815185600182028301116401000000008211171561474d57600080fd5b505092919050505090507fef6eae087cb06b818ef886b5106d74a20110d95d2e1479bc8c8fa3ee929ae74787826040518083815260200180602001828103825283818151815260200191508051906020019080838360005b838110156147c05780820151818401526020810190506147a5565b50505050905090810190601f1680156147ed5780820380516001836020036101000a031916815260200191505b50935050505060405180910390a15050505050505050565b600060405180807f476976654261636b2875696e74206974656d49442c75696e74206e6f6e63652981525060200190506040518091039020838360405160200180848152602001838152602001828152602001935050505060405160208183030381529060405280519060200120905092915050565b60008473ffffffffffffffffffffffffffffffffffffffff1660018786868660405160008152602001604052604051808581526020018460ff1660ff1681526020018381526020018281526020019450505050506020604051602081039080840390855afa1580156148f1573d6000803e3d6000fd5b5050506020604051035173ffffffffffffffffffffffffffffffffffffffff1614905095945050505050565b826005810192821561494c579160200282015b8281111561494b578251825591602001919060010190614930565b5b50905061495991906149a2565b5090565b6040518060a00160405280600590602082028038833980820191505090505090565b506000815560010160008155600101600081556001016000815560010160009055565b6149c491905b808211156149c05760008160009055506001016149a8565b5090565b9056fe5045524d495353494f4e2044454e4945442c204f6e6c79204974656d20466163746f72792063616e206368616e676520746865204974656d204f776e65724f6e6c792042726f6b657220697320616c6c6f77656420746f2072657475726e206f776e6572736869704974656d206f776e657220616e64206865726f206f776e65727320617265206e6f74206d61746368696e674f6e6c79204974656d20466163746f72792063616e207075742061206e6577204974656d4974656d206c69737420666f72206275726e696e6720646f206e6f742062656c6f6e6720746f206974656d2063726561746f725045524d495353494f4e2044454e4945442c204f6e6c79204974656d20466163746f7279206f72204865726f204f776e65722063616e20756e6c6f636b206974656d73454950373132446f6d61696e28737472696e67206e616d652c737472696e672076657273696f6e2c75696e7432353620636861696e49642c6164647265737320766572696679696e67436f6e7472616374295265667573654f776e6572736869702875696e74206974656d49442c75696e74206e6f6e6365294974656d206f776e6572206973206e6f74206d61746368696e67207769746820676976656e205065726d697373696f6e206772616e74696e6720757365724954454d204e4f5420464f554e442c204974656d206d757374206265206f6e2074686520626c6f636b636861696e4772616e744f776e6572736869702875696e74206974656d49442c75696e74206e6f6e6365295045524d495353494f4e2044454e4945442c204865726f20646f206e6f74206c6f6767656420696e4974656d2073686f756c64206e6f74206265206372656174656420616c7265616479a165627a7a72305820859e17dea09377838c97b854be380bd023680877c6122adfaff1b4419781bd1b002952656675736520746865205065726d697373696f6e20746f207468652062726f6b6572454950373132446f6d61696e28737472696e67206e616d652c737472696e672076657273696f6e2c75696e7432353620636861696e49642c6164647265737320766572696679696e67436f6e747261637429",
  "source": "pragma solidity ^0.5.0;\r\n\r\nimport \"./IERC721.sol\";\r\n\r\n// add is collactable item function\r\nimport \"./CollectorI.sol\";\r\n\r\nimport \"./WalletlessI.sol\";\r\n\r\ncontract ItemContract {\r\n    struct Item {\r\n        uint owner;\r\n    }\r\n\r\n    struct HeroOwned {\r\n        uint owner;  // Items and LORD owner address\r\n        uint[5] items;  // Item IDs\r\n    }\r\n\r\n    mapping(uint => Item) public itemList;\r\n    mapping(uint => bool) public createdList;\r\n    mapping(uint => uint) public brokerOwnedList;\r\n    /**\r\n     *  Nonce counter for each player\r\n     *\r\n     *  key:    User ID\r\n     *  value:  Nonce\r\n     */\r\n    mapping(uint => uint) public nonceList;\r\n    /**\r\n     * Items which are assigned to the Hero Token ID, rather than to wallet address\r\n     *\r\n     * Locked Items holds the list of items\r\n     */\r\n    mapping(uint => HeroOwned) public lockedList;\r\n\r\n    //##########################################################\r\n    //   Events:\r\n    //    1. ItemCreated(item ID, owner ID, burn ID)\r\n    //    2. ItemsLocked(hero ID, items IDs, owner ID)\r\n    //    3. ItemsUnlocked(hero ID, items IDs, owner ID)\r\n    //    4. Granting Ownership(item ID, price, owner ID)\r\n    //    5. Refusing Ownership(item ID, owner ID)\r\n    //    6. Returning Ownership(item ID, new Owner ID)\r\n    //##########################################################\r\n\r\n    event ItemCreated(uint itemID, string ownerID, uint burnID);\r\n    event ItemsLocked(uint heroID, uint[5] itemIDs, string ownerID);\r\n    event ItemsUnlocked(uint heroID, uint[5] itemIDs, string ownerID);\r\n    event OwnershipGranted(uint itemID, string ownerID);\r\n    event OwnershipRefused(uint itemID, string ownerID);\r\n    event OwnershipReturned(uint itemID, string ownerID);\r\n    event ItemCollected(uint itemID, string ownerID);\r\n\r\n\r\n    //##########################################################\r\n    //   Contract Address:\r\n    //    1. Setting This Contract Owner address(item ID, owner ID)\r\n    //    2. Setting Manager address(hero ID, items IDs, owner ID)\r\n    //    3. Setting Hero Token address(hero ID, items IDs, owner ID)\r\n    //    4. Setting Walletless address(item ID, price, owner ID)\r\n    //    4. Setting Broker address(item ID, price, owner ID)\r\n    //    4. Setting Collector address(item ID, price, owner ID)\r\n    //##########################################################\r\n    uint public nonce         = 1;\r\n    address _contractOwner    = 0xFAa502EBe96601782A34b1a947B676FB4e9d090c;\r\n    address _heroToken        = address(0);\r\n    address _walletless       = address(0);\r\n    address _broker           = address(0);\r\n    address _collector        = address(0);\r\n\r\n    function GetDigest(address account) external returns(bytes32) {\r\n      bytes32 digest = keccak256(abi.encodePacked(\r\n        account,\r\n        nonce\r\n      ));\r\n\r\n      return digest;\r\n    }\r\n\r\n    function GetSigner(address account, uint8 v, bytes32 r, bytes32 s) external returns(address) {\r\n      bytes32 digest = keccak256(abi.encodePacked(\r\n        account,\r\n        nonce\r\n      ));\r\n\r\n      return ecrecover(digest, v, r, s);\r\n    }\r\n\r\n    function SetContractOwner(address contractOwner, uint8 sigV, bytes32 sigR, bytes32 sigS) external {\r\n        bytes32 digest = keccak256(abi.encodePacked(\r\n          contractOwner,\r\n          nonce\r\n        ));\r\n        require(Verify(digest, _contractOwner, sigV, sigR, sigS), \"Verification Failed\");\r\n\r\n        nonce = nonce + 1;\r\n\r\n        _contractOwner = contractOwner;\r\n    }\r\n    function SetHeroToken(address heroToken, uint8 sigV, bytes32 sigR, bytes32 sigS) external {\r\n      bytes32 digest = keccak256(abi.encodePacked(\r\n        heroToken,\r\n        nonce\r\n      ));\r\n      require(Verify(digest, _contractOwner, sigV, sigR, sigS), \"Verification Failed\");\r\n\r\n      nonce = nonce + 1;\r\n\r\n      _heroToken = heroToken;\r\n    }\r\n    function SetWalletless(address walletless, uint8 sigV, bytes32 sigR, bytes32 sigS) external {\r\n      bytes32 digest = keccak256(abi.encodePacked(\r\n        walletless,\r\n        nonce\r\n      ));\r\n      require(Verify(digest, _contractOwner, sigV, sigR, sigS), \"Verification Failed\");\r\n\r\n      nonce = nonce + 1;\r\n\r\n      _walletless = walletless;\r\n    }\r\n    function SetBroker(address broker, uint8 sigV, bytes32 sigR, bytes32 sigS) external {\r\n      bytes32 digest = keccak256(abi.encodePacked(\r\n        broker,\r\n        nonce\r\n      ));\r\n      require(Verify(digest, _contractOwner, sigV, sigR, sigS), \"Verification Failed\");\r\n\r\n      nonce = nonce + 1;\r\n\r\n      _broker = broker;\r\n    }\r\n    function SetCollector(address collector, uint8 sigV, bytes32 sigR, bytes32 sigS) external {\r\n      bytes32 digest = keccak256(abi.encodePacked(\r\n        collector,\r\n        nonce\r\n      ));\r\n      require(Verify(digest, _contractOwner, sigV, sigR, sigS), \"Verification Failed\");\r\n\r\n      nonce = nonce + 1;\r\n\r\n      _collector = collector;\r\n    }\r\n    function GetNonce() external returns(uint) {\r\n      return nonce;\r\n    }\r\n\r\n    //##########################################################\r\n    //   Minting:\r\n    //    1. Minting a new Item(owner Address, item ID, burning Item ID)\r\n    //    .2 Minting Items as Lock items(uint[5] IDs, Hero ID)\r\n    //##########################################################\r\n    function SetItem(address ownerAddr, uint id, uint burnId) public returns(bool){\r\n        require(msg.sender == _contractOwner, \"Only Item Factory can put a new Item\");\r\n        require(id > 0,                       \"Item ID must be greater than 0\");\r\n        require(createdList[id] == false,     \"Item should not be created already\");\r\n\r\n        uint owner = WalletlessI(_walletless).GetNumber(ownerAddr);\r\n\r\n        require(owner > 0,             \"Player not found\");\r\n\r\n        if (burnId > 0) {\r\n          require(itemList[burnId].owner == owner, \"Item list for burning do not belong to item creator\");\r\n\r\n          delete itemList[burnId];\r\n          delete brokerOwnedList[burnId];\r\n        }\r\n\r\n        itemList[id] = Item(owner);\r\n        createdList[id] = true;\r\n\r\n        string memory ownerID = WalletlessI(_walletless).GetID(ownerAddr);\r\n        emit ItemCreated(id, ownerID, burnId);\r\n\r\n        return true;\r\n    }\r\n    function SetLockedItems(uint[5] memory ids, uint heroID) public returns (bool) {\r\n        require(msg.sender == _contractOwner, \"PERMISSION DENIED, Only Item Factory can change the Item Owner\");\r\n        require(lockedList[heroID].owner == 0, \"Has Locked Items\");\r\n        // TODO call Loom gateway address from Smartcontract\r\n\r\n        for(uint i=0; i<5; i++) {\r\n            require(createdList[ids[i]] == false, \"Item exists\");\r\n        }\r\n\r\n        address heroOwnerAddress = IERC721(_heroToken).ownerOf(heroID);\r\n        require(heroOwnerAddress != address(0), \"PERMISSION DENIED, Hero do not logged in\");\r\n\r\n        uint heroOwner = WalletlessI(_walletless).GetNumber(heroOwnerAddress);\r\n\r\n        require(heroOwner > 0, \"Hero owner is not registered\");\r\n\r\n        lockedList[heroID] = HeroOwned(heroOwner, ids);\r\n\r\n        string memory ownerID = WalletlessI(_walletless).GetID(heroOwnerAddress);\r\n\r\n        for(uint i=0; i<5; i++) {\r\n            itemList[ids[i]] = Item(0);\r\n            createdList[ids[i]] = true;\r\n            emit ItemCreated(ids[i], ownerID, 0);\r\n        }\r\n\r\n        emit ItemsLocked(heroID, ids, ownerID);\r\n    }\r\n\r\n    //##########################################################\r\n    //   Broker (Who takes ownership over the Item):\r\n    //    1. Grants a permission to the Broker(address ownerAddr, item ID, signature...)\r\n    //    2. Cancel the Grant(address ownerAddr, item ID)\r\n    //    3. Broker Returns Item to the new Owner(address newOwner, item ID)\r\n    //    4. Check for Item Ownership(item ID, address to compare)\r\n    //    5. Check for Item Existence(item ID)\r\n    //##########################################################\r\n    function GrantOwnership(address ownerAddr, uint id, uint8 sigV, bytes32 sigR, bytes32 sigS) public {\r\n        require(createdList[id] == true,        \"Item not found\");\r\n\r\n        uint owner = WalletlessI(_walletless).GetNumber(ownerAddr);\r\n\r\n        require(itemList[id].owner == owner,    \"Item owner is not matching with given Permission granting user\");\r\n\r\n        // Signature\r\n        bytes32 digest = keccak256(abi.encodePacked(\r\n            \"\\x19\\x01\",\r\n            DOMAIN_SEPARATOR_BACK,\r\n            GetGivingBackHash(id, nonceList[owner])\r\n        ));\r\n        require(Verify(digest, ownerAddr, sigV, sigR, sigS), \"Verification Failed\");\r\n\r\n        itemList[id].owner = 0;\r\n\r\n        brokerOwnedList[id] = owner;\r\n\r\n        nonceList[owner] = nonceList[owner] + 1;\r\n\r\n        string memory ownerID = WalletlessI(_walletless).GetID(ownerAddr);\r\n        emit OwnershipGranted(id, ownerID);\r\n    }\r\n    function RefuseOwnership(address ownerAddr, uint id, uint8 sigV, bytes32 sigR, bytes32 sigS) public {\r\n        require(createdList[id] == true,              \"ITEM NOT FOUND, Item must be on the blockchain\");\r\n\r\n        uint owner = WalletlessI(_walletless).GetNumber(ownerAddr);\r\n\r\n        require(brokerOwnedList[id] == owner,   \"Item owner is not matching with given Permission granting user\");\r\n\r\n        // Signature\r\n        bytes32 digest = keccak256(abi.encodePacked(\r\n            \"\\x19\\x01\",\r\n            DOMAIN_SEPARATOR_REFUSE,\r\n            GetGivingBackHash(id, nonceList[owner])\r\n        ));\r\n        require(Verify(digest, ownerAddr, sigV, sigR, sigS), \"Verification Failed\");\r\n\r\n        delete brokerOwnedList[id];\r\n\r\n        itemList[id].owner = owner;\r\n\r\n        nonceList[owner] = nonceList[owner] + 1;\r\n\r\n        string memory ownerID = WalletlessI(_walletless).GetID(ownerAddr);\r\n        emit OwnershipRefused(id, ownerID);\r\n    }\r\n    function ReturnOwnership(address newOwner, uint id) public {\r\n        require(msg.sender == _broker, \"Only Broker is allowed to return ownership\");\r\n        require(createdList[id] == true, \"Item not found\");\r\n        require(brokerOwnedList[id] > 0, \"Broker not control Item\");\r\n\r\n        uint owner = WalletlessI(_walletless).GetNumber(newOwner);\r\n\r\n        require(owner > 0,    \"Player not found\");\r\n\r\n        delete brokerOwnedList[id];\r\n\r\n        itemList[id].owner = owner;\r\n\r\n        string memory ownerID = WalletlessI(_walletless).GetID(newOwner);\r\n        emit OwnershipReturned(id, ownerID);\r\n    }\r\n    function IsItemOwner(uint id, address owner) external view returns(bool) {\r\n        return itemList[id].owner != WalletlessI(_walletless).GetNumber(owner);\r\n    }\r\n    function IsItemExist(uint id) external view returns(bool) {\r\n        return itemList[id].owner > 0;\r\n    }\r\n\r\n    //##########################################################\r\n    //   Lock (Change the Ownership over the Item from Item to Token or Vice Versa):\r\n    //    1. Assigns the Item ownership to the LORDS Token(item ids, hero id)\r\n    //    2. Assigns the Ownership over the items to the Player.(hero id)\r\n    //    3. Get List of Locked Items(hero  id)\r\n    //##########################################################\r\n    function LockItems(uint[5] memory ids, uint heroID) public {\r\n        require(msg.sender == _contractOwner, \"PERMISSION DENIED, Only Item Factory can change the Item Owner\");\r\n        require(heroID > 0, \"Hero ID should be greater that\");\r\n        require(lockedList[heroID].owner == 0, \"Hero has locked items already\");\r\n\r\n        uint itemOwner = 0;\r\n\r\n        address heroOwnerAddress = IERC721(_heroToken).ownerOf(heroID);\r\n        uint heroOwner = WalletlessI(_walletless).GetNumber(heroOwnerAddress);\r\n        /* require(heroOwner > 0, \"Hero was not found\"); */\r\n\r\n        for(uint i=0; i<5; i++) {\r\n            if (ids[i] > 0) {\r\n              require(createdList[ids[i]] == true, \"Item does not exist\");\r\n              itemOwner = itemList[ids[i]].owner;\r\n              require(itemOwner == heroOwner, \"Item owner and hero owners are not matching\");\r\n            }\r\n        }\r\n\r\n        // No need to continue if there are no items to lock\r\n        if (itemOwner == 0) {\r\n          return;\r\n        }\r\n\r\n        // Map the Hero ID to the Items\r\n        lockedList[heroID] = HeroOwned(heroOwner, ids);\r\n\r\n        for(uint i=0; i<5; i++) {\r\n            itemList[ids[i]].owner = 0;\r\n        }\r\n\r\n        string memory ownerID = WalletlessI(_walletless).GetID(heroOwnerAddress);\r\n        emit ItemsLocked(heroID, ids, ownerID);\r\n    }\r\n    function UnlockItems(uint heroID) public {\r\n        require(lockedList[heroID].owner > 0, \"No locked items\");\r\n\r\n        address heroOwnerAddress = IERC721(_heroToken).ownerOf(heroID);\r\n        uint heroOwner = WalletlessI(_walletless).GetNumber(heroOwnerAddress);\r\n        require(heroOwner > 0, \"Hero owner not found\");\r\n\r\n        require(msg.sender == _contractOwner || msg.sender == heroOwnerAddress, \"PERMISSION DENIED, Only Item Factory or Hero Owner can unlock items\");\r\n\r\n        for(uint i=0; i<5; i++) {\r\n            itemList[lockedList[heroID].items[i]].owner = heroOwner;\r\n        }\r\n\r\n        uint[5] memory ids = lockedList[heroID].items;\r\n\r\n        delete lockedList[heroID];\r\n\r\n        string memory ownerID = WalletlessI(_walletless).GetID(heroOwnerAddress);\r\n        emit ItemsUnlocked(heroID, ids, ownerID);\r\n    }\r\n    function GetLockedItems(uint heroID) public view returns(uint, uint, uint, uint, uint, uint) {\r\n      return (lockedList[heroID].owner, lockedList[heroID].items[0], lockedList[heroID].items[1],\r\n        lockedList[heroID].items[2], lockedList[heroID].items[3], lockedList[heroID].items[4]);\r\n    }\r\n\r\n    //##########################################################\r\n    //  Collector:\r\n    //    1. Give Back the Item(item id, item owner address, sig...)\r\n    //##########################################################\r\n\r\n    function GiveBack(uint itemID, address ownerAddr, uint8 sigV, bytes32 sigR, bytes32 sigS) public\r\n    {\r\n      // validate the signature\r\n      uint owner = WalletlessI(_walletless).GetNumber(ownerAddr);\r\n      require(owner > 0, \"No hero found\");\r\n\r\n      require(owner == itemList[itemID].owner, \"Item not belong to the owner\");\r\n\r\n      require(CollectorI(_collector).IsCollectableItem(itemID), \"Item not collectable\");\r\n\r\n      // Signature verification\r\n      bytes32 digest = keccak256(abi.encodePacked(\r\n          \"\\x19\\x01\",\r\n          DOMAIN_SEPARATOR_BACK,\r\n          GetGivingBackHash(itemID, nonceList[owner])\r\n      ));\r\n      require(Verify(digest, ownerAddr, sigV, sigR, sigS), \"Verification Failed\");\r\n\r\n      delete itemList[itemID];\r\n\r\n      nonceList[owner] = nonceList[owner] + 1;\r\n\r\n      string memory ownerID = WalletlessI(_walletless).GetID(ownerAddr);\r\n      emit ItemCollected(itemID, ownerID);\r\n    }\r\n\r\n    //##########################################################\r\n    //\r\n    //  Misc:\r\n    //    1. Do not accept any asset\r\n    //##########################################################\r\n\r\n    function () external {}\r\n\r\n    constructor(uint chainId) public {\r\n          DOMAIN_SEPARATOR_GRANT  = Hash(EIP712Domain({\r\n              name: \"Grant Permission to the Broker\",\r\n              version: '1',\r\n              chainId: chainId,\r\n              //verifyingContract: address(this)\r\n              verifyingContract: 0x5E72914535f202659083Db3a02C984188Fa26e9f\r\n          }));\r\n          DOMAIN_SEPARATOR_REFUSE = Hash(EIP712Domain({\r\n              name: \"Refuse the Permission to the broker\",\r\n              version: '1',\r\n              chainId: chainId,\r\n              verifyingContract: 0x5E72914535f202659083Db3a02C984188Fa26e9f\r\n          }));\r\n          DOMAIN_SEPARATOR_BACK   = Hash(EIP712Domain({\r\n              name: \"Give Back Item (Will be burnt)\",\r\n              version: '1',\r\n              chainId: chainId,\r\n              verifyingContract: 0x5E72914535f202659083Db3a02C984188Fa26e9f\r\n          }));\r\n    }\r\n\r\n\r\n    //##########################################################\r\n    //   Signature (EIP-712 standard):\r\n    //##########################################################\r\n\r\n    struct EIP712Domain {\r\n        string  name;\r\n        string  version;\r\n        uint256 chainId;\r\n        address verifyingContract;\r\n    }\r\n\r\n    bytes32 constant public EIP712DOMAINTYPE_HASH = keccak256(\"EIP712Domain(string name,string version,uint256 chainId,address verifyingContract)\");\r\n\r\n    bytes32 constant public TXTYPE_HASH_GRANT   = keccak256(\"GrantOwnership(uint itemID,uint nonce)\");\r\n    bytes32 constant public TXTYPE_HASH_REFUSE  = keccak256(\"RefuseOwnership(uint itemID,uint nonce)\");\r\n    bytes32 constant public TXTYPE_HASH_BACK    = keccak256(\"GiveBack(uint itemID,uint nonce)\");\r\n\r\n    bytes32 public DOMAIN_SEPARATOR_GRANT;\r\n    bytes32 public DOMAIN_SEPARATOR_REFUSE;\r\n    bytes32 public DOMAIN_SEPARATOR_BACK;\r\n\r\n    function GetGrantingHash(uint itemID, uint nonce) internal pure returns (bytes32) {\r\n      return keccak256(abi.encode(\r\n        TXTYPE_HASH_GRANT,\r\n        itemID,\r\n        nonce\r\n      ));\r\n    }\r\n    function GetRefusingHash(uint itemID, uint nonce) internal pure returns (bytes32) {\r\n      return keccak256(abi.encode(\r\n        TXTYPE_HASH_REFUSE,\r\n        itemID,\r\n        nonce\r\n      ));\r\n    }\r\n    function GetGivingBackHash(uint itemID, uint nonce) internal pure returns (bytes32) {\r\n      return keccak256(abi.encode(\r\n        TXTYPE_HASH_BACK,\r\n        itemID,\r\n        nonce\r\n      ));\r\n    }\r\n\r\n    function Hash(EIP712Domain memory eip712Domain) internal pure returns (bytes32) {\r\n        bytes memory encoded = abi.encode(\r\n            EIP712DOMAINTYPE_HASH,\r\n            keccak256(bytes(eip712Domain.name)),\r\n            keccak256(bytes(eip712Domain.version)),\r\n            eip712Domain.chainId,\r\n            eip712Domain.verifyingContract\r\n        );\r\n\r\n\r\n        return keccak256(encoded);\r\n    }\r\n\r\n    function Verify(bytes32 digest, address signer, uint8 v, bytes32 r, bytes32 s) internal pure returns (bool) {\r\n        // Note: we need to use `encodePacked` here instead of `encode`.\r\n        return ecrecover(digest, v, r, s) == signer;\r\n    }\r\n}\r\n",
  "sourcePath": "/mnt/c/repos/blocklords-loom-contracts/contracts/ItemContract.sol",
  "compiler": {
    "name": "solc",
    "version": "0.5.8+commit.23d335f2.Emscripten.clang"
  },
  "schemaVersion": "3.0.15",
  "updatedAt": "2020-02-11T20:24:34.692Z",
  "devdoc": {
    "methods": {}
  },
  "userdoc": {
    "methods": {}
  }
}