{
  "contractName": "Walletless",
  "abi": [
    {
      "constant": true,
      "inputs": [],
      "name": "DOMAIN_SEPARATOR_PRIMARY",
      "outputs": [
        {
          "name": "",
          "type": "bytes32"
        }
      ],
      "payable": false,
      "stateMutability": "view",
      "type": "function"
    },
    {
      "constant": true,
      "inputs": [
        {
          "name": "",
          "type": "address"
        }
      ],
      "name": "primaryAddresses",
      "outputs": [
        {
          "name": "",
          "type": "uint256"
        }
      ],
      "payable": false,
      "stateMutability": "view",
      "type": "function"
    },
    {
      "constant": true,
      "inputs": [],
      "name": "EIP712DOMAINTYPE_HASH",
      "outputs": [
        {
          "name": "",
          "type": "bytes32"
        }
      ],
      "payable": false,
      "stateMutability": "view",
      "type": "function"
    },
    {
      "constant": true,
      "inputs": [
        {
          "name": "",
          "type": "uint256"
        }
      ],
      "name": "users",
      "outputs": [
        {
          "name": "primary",
          "type": "address"
        },
        {
          "name": "temporary",
          "type": "address"
        },
        {
          "name": "ID",
          "type": "string"
        }
      ],
      "payable": false,
      "stateMutability": "view",
      "type": "function"
    },
    {
      "constant": true,
      "inputs": [
        {
          "name": "",
          "type": "address"
        }
      ],
      "name": "temporaryAddresses",
      "outputs": [
        {
          "name": "",
          "type": "uint256"
        }
      ],
      "payable": false,
      "stateMutability": "view",
      "type": "function"
    },
    {
      "constant": true,
      "inputs": [],
      "name": "threshold",
      "outputs": [
        {
          "name": "",
          "type": "uint256"
        }
      ],
      "payable": false,
      "stateMutability": "view",
      "type": "function"
    },
    {
      "constant": true,
      "inputs": [],
      "name": "TXTYPE_HASH_PRIMARY",
      "outputs": [
        {
          "name": "",
          "type": "bytes32"
        }
      ],
      "payable": false,
      "stateMutability": "view",
      "type": "function"
    },
    {
      "constant": true,
      "inputs": [],
      "name": "TXTYPE_HASH_TEMPORARY",
      "outputs": [
        {
          "name": "",
          "type": "bytes32"
        }
      ],
      "payable": false,
      "stateMutability": "view",
      "type": "function"
    },
    {
      "constant": true,
      "inputs": [],
      "name": "DOMAIN_SEPARATOR_TEMPORARY",
      "outputs": [
        {
          "name": "",
          "type": "bytes32"
        }
      ],
      "payable": false,
      "stateMutability": "view",
      "type": "function"
    },
    {
      "constant": true,
      "inputs": [],
      "name": "gameOwner",
      "outputs": [
        {
          "name": "",
          "type": "address"
        }
      ],
      "payable": false,
      "stateMutability": "view",
      "type": "function"
    },
    {
      "inputs": [
        {
          "name": "chainId",
          "type": "uint256"
        }
      ],
      "payable": false,
      "stateMutability": "nonpayable",
      "type": "constructor"
    },
    {
      "anonymous": false,
      "inputs": [
        {
          "indexed": false,
          "name": "str",
          "type": "string"
        }
      ],
      "name": "logString",
      "type": "event"
    },
    {
      "anonymous": false,
      "inputs": [
        {
          "indexed": false,
          "name": "bts",
          "type": "bytes32"
        }
      ],
      "name": "logBytes32",
      "type": "event"
    },
    {
      "anonymous": false,
      "inputs": [
        {
          "indexed": false,
          "name": "bts",
          "type": "bytes"
        }
      ],
      "name": "logBytes",
      "type": "event"
    },
    {
      "constant": false,
      "inputs": [
        {
          "name": "temporary",
          "type": "address"
        },
        {
          "name": "ID",
          "type": "string"
        },
        {
          "name": "sigV",
          "type": "uint8[]"
        },
        {
          "name": "sigR",
          "type": "bytes32[]"
        },
        {
          "name": "sigS",
          "type": "bytes32[]"
        }
      ],
      "name": "UpdateTemporary",
      "outputs": [],
      "payable": false,
      "stateMutability": "nonpayable",
      "type": "function"
    },
    {
      "constant": false,
      "inputs": [
        {
          "name": "temporary",
          "type": "address"
        },
        {
          "name": "primary",
          "type": "address"
        },
        {
          "name": "sigV",
          "type": "uint8[]"
        },
        {
          "name": "sigR",
          "type": "bytes32[]"
        },
        {
          "name": "sigS",
          "type": "bytes32[]"
        }
      ],
      "name": "UpdatePrimary",
      "outputs": [],
      "payable": false,
      "stateMutability": "nonpayable",
      "type": "function"
    },
    {
      "constant": false,
      "inputs": [
        {
          "name": "id_",
          "type": "string"
        }
      ],
      "name": "UpdateID",
      "outputs": [],
      "payable": false,
      "stateMutability": "nonpayable",
      "type": "function"
    },
    {
      "constant": true,
      "inputs": [
        {
          "name": "account",
          "type": "address"
        }
      ],
      "name": "GetID",
      "outputs": [
        {
          "name": "",
          "type": "string"
        }
      ],
      "payable": false,
      "stateMutability": "view",
      "type": "function"
    },
    {
      "constant": true,
      "inputs": [
        {
          "name": "account",
          "type": "address"
        }
      ],
      "name": "GetNumber",
      "outputs": [
        {
          "name": "",
          "type": "uint256"
        }
      ],
      "payable": false,
      "stateMutability": "view",
      "type": "function"
    },
    {
      "constant": true,
      "inputs": [
        {
          "name": "id_",
          "type": "string"
        }
      ],
      "name": "GetTemporary",
      "outputs": [
        {
          "name": "",
          "type": "address"
        }
      ],
      "payable": false,
      "stateMutability": "view",
      "type": "function"
    },
    {
      "constant": true,
      "inputs": [
        {
          "name": "id_",
          "type": "string"
        }
      ],
      "name": "GetPrimary",
      "outputs": [
        {
          "name": "",
          "type": "address"
        }
      ],
      "payable": false,
      "stateMutability": "view",
      "type": "function"
    }
  ],
  "bytecode": "0x608060405273faa502ebe96601782a34b1a947b676fb4e9d090c600160006101000a81548173ffffffffffffffffffffffffffffffffffffffff021916908373ffffffffffffffffffffffffffffffffffffffff1602179055503480156200006657600080fd5b50604051602080620027bd833981018060405260208110156200008857600080fd5b810190808051906020019092919050505060028081905550600080819055506200016c60405180608001604052806040518060400160405280601681526020017f557064617465205072696d61727920416464726573730000000000000000000081525081526020016040518060400160405280600181526020017f31000000000000000000000000000000000000000000000000000000000000008152508152602001838152602001735e72914535f202659083db3a02c984188fa26e9f73ffffffffffffffffffffffffffffffffffffffff168152506200024460201b60201c565b6008819055506200023760405180608001604052806040518060400160405280601881526020017f5570646174652054656d706f726172792041646472657373000000000000000081525081526020016040518060400160405280600181526020017f31000000000000000000000000000000000000000000000000000000000000008152508152602001838152602001735e72914535f202659083db3a02c984188fa26e9f73ffffffffffffffffffffffffffffffffffffffff168152506200024460201b60201c565b60078190555050620002fd565b6000606060405180806200276b605291396052019050604051809103902083600001518051906020012084602001518051906020012085604001518660600151604051602001808681526020018581526020018481526020018381526020018273ffffffffffffffffffffffffffffffffffffffff1673ffffffffffffffffffffffffffffffffffffffff1681526020019550505050505060405160208183030381529060405290508080519060200120915050919050565b61245e806200030d6000396000f3fe608060405234801561001057600080fd5b506004361061010b5760003560e01c806342cde4e8116100a2578063bcae221611610071578063bcae2216146108e5578063c9e3014314610b05578063d2621a5114610b23578063f5e889aa14610b41578063f6b12f2814610bfe5761010b565b806342cde4e8146105575780639d06629a146105755780639d904fd81461080c578063b2c352e6146108c75761010b565b80631ed23c8c116100de5780631ed23c8c1461037c5780632b3f1e0e1461039a578063365b98b2146103f25780634189a0c8146104ff5761010b565b8063080f897e146101105780630f7e4e801461020b5780631765e8771461022957806318785a4a14610281575b600080fd5b6101c96004803603602081101561012657600080fd5b810190808035906020019064010000000081111561014357600080fd5b82018360208201111561015557600080fd5b8035906020019184600183028401116401000000008311171561017757600080fd5b91908080601f016020809104026020016040519081016040528093929190818152602001838380828437600081840152601f19601f820116905080830192505050505050509192919290505050610c48565b604051808273ffffffffffffffffffffffffffffffffffffffff1673ffffffffffffffffffffffffffffffffffffffff16815260200191505060405180910390f35b610213610d0a565b6040518082815260200191505060405180910390f35b61026b6004803603602081101561023f57600080fd5b81019080803573ffffffffffffffffffffffffffffffffffffffff169060200190929190505050610d10565b6040518082815260200191505060405180910390f35b61033a6004803603602081101561029757600080fd5b81019080803590602001906401000000008111156102b457600080fd5b8201836020820111156102c657600080fd5b803590602001918460018302840111640100000000831117156102e857600080fd5b91908080601f016020809104026020016040519081016040528093929190818152602001838380828437600081840152601f19601f820116905080830192505050505050509192919290505050610d28565b604051808273ffffffffffffffffffffffffffffffffffffffff1673ffffffffffffffffffffffffffffffffffffffff16815260200191505060405180910390f35b610384610dea565b6040518082815260200191505060405180910390f35b6103dc600480360360208110156103b057600080fd5b81019080803573ffffffffffffffffffffffffffffffffffffffff169060200190929190505050610e06565b6040518082815260200191505060405180910390f35b61041e6004803603602081101561040857600080fd5b8101908080359060200190929190505050610ea0565b604051808473ffffffffffffffffffffffffffffffffffffffff1673ffffffffffffffffffffffffffffffffffffffff1681526020018373ffffffffffffffffffffffffffffffffffffffff1673ffffffffffffffffffffffffffffffffffffffff16815260200180602001828103825283818151815260200191508051906020019080838360005b838110156104c25780820151818401526020810190506104a7565b50505050905090810190601f1680156104ef5780820380516001836020036101000a031916815260200191505b5094505050505060405180910390f35b6105416004803603602081101561051557600080fd5b81019080803573ffffffffffffffffffffffffffffffffffffffff169060200190929190505050610fa2565b6040518082815260200191505060405180910390f35b61055f610fba565b6040518082815260200191505060405180910390f35b61080a600480360360a081101561058b57600080fd5b81019080803573ffffffffffffffffffffffffffffffffffffffff169060200190929190803590602001906401000000008111156105c857600080fd5b8201836020820111156105da57600080fd5b803590602001918460018302840111640100000000831117156105fc57600080fd5b91908080601f016020809104026020016040519081016040528093929190818152602001838380828437600081840152601f19601f8201169050808301925050505050505091929192908035906020019064010000000081111561065f57600080fd5b82018360208201111561067157600080fd5b8035906020019184602083028401116401000000008311171561069357600080fd5b919080806020026020016040519081016040528093929190818152602001838360200280828437600081840152601f19601f820116905080830192505050505050509192919290803590602001906401000000008111156106f357600080fd5b82018360208201111561070557600080fd5b8035906020019184602083028401116401000000008311171561072757600080fd5b919080806020026020016040519081016040528093929190818152602001838360200280828437600081840152601f19601f8201169050808301925050505050505091929192908035906020019064010000000081111561078757600080fd5b82018360208201111561079957600080fd5b803590602001918460208302840111640100000000831117156107bb57600080fd5b919080806020026020016040519081016040528093929190818152602001838360200280828437600081840152601f19601f820116905080830192505050505050509192919290505050610fc0565b005b6108c56004803603602081101561082257600080fd5b810190808035906020019064010000000081111561083f57600080fd5b82018360208201111561085157600080fd5b8035906020019184600183028401116401000000008311171561087357600080fd5b91908080601f016020809104026020016040519081016040528093929190818152602001838380828437600081840152601f19601f8201169050808301925050505050505091929192905050506115cd565b005b6108cf61189c565b6040518082815260200191505060405180910390f35b610b03600480360360a08110156108fb57600080fd5b81019080803573ffffffffffffffffffffffffffffffffffffffff169060200190929190803573ffffffffffffffffffffffffffffffffffffffff1690602001909291908035906020019064010000000081111561095857600080fd5b82018360208201111561096a57600080fd5b8035906020019184602083028401116401000000008311171561098c57600080fd5b919080806020026020016040519081016040528093929190818152602001838360200280828437600081840152601f19601f820116905080830192505050505050509192919290803590602001906401000000008111156109ec57600080fd5b8201836020820111156109fe57600080fd5b80359060200191846020830284011164010000000083111715610a2057600080fd5b919080806020026020016040519081016040528093929190818152602001838360200280828437600081840152601f19601f82011690508083019250505050505050919291929080359060200190640100000000811115610a8057600080fd5b820183602082011115610a9257600080fd5b80359060200191846020830284011164010000000083111715610ab457600080fd5b919080806020026020016040519081016040528093929190818152602001838360200280828437600081840152601f19601f8201169050808301925050505050505091929192905050506118b8565b005b610b0d611d8e565b6040518082815260200191505060405180910390f35b610b2b611daa565b6040518082815260200191505060405180910390f35b610b8360048036036020811015610b5757600080fd5b81019080803573ffffffffffffffffffffffffffffffffffffffff169060200190929190505050611db0565b6040518080602001828103825283818151815260200191508051906020019080838360005b83811015610bc3578082015181840152602081019050610ba8565b50505050905090810190601f168015610bf05780820380516001836020036101000a031916815260200191505b509250505060405180910390f35b610c06611f1b565b604051808273ffffffffffffffffffffffffffffffffffffffff1673ffffffffffffffffffffffffffffffffffffffff16815260200191505060405180910390f35b6000806005836040518082805190602001908083835b60208310610c815780518252602082019150602081019050602083039250610c5e565b6001836020036101000a03801982511681845116808217855250505050505090500191505090815260200160405180910390205490506000811415610cca576000915050610d05565b6006600082815260200190815260200160002060010160009054906101000a900473ffffffffffffffffffffffffffffffffffffffff169150505b919050565b60085481565b60046020528060005260406000206000915090505481565b6000806005836040518082805190602001908083835b60208310610d615780518252602082019150602081019050602083039250610d3e565b6001836020036101000a03801982511681845116808217855250505050505090500191505090815260200160405180910390205490506000811415610daa576000915050610de5565b6006600082815260200190815260200160002060000160009054906101000a900473ffffffffffffffffffffffffffffffffffffffff169150505b919050565b6040518080612397605291396052019050604051809103902081565b600080600460008473ffffffffffffffffffffffffffffffffffffffff1673ffffffffffffffffffffffffffffffffffffffff1681526020019081526020016000205490506000811415610e9757600360008473ffffffffffffffffffffffffffffffffffffffff1673ffffffffffffffffffffffffffffffffffffffff1681526020019081526020016000205490505b80915050919050565b60066020528060005260406000206000915090508060000160009054906101000a900473ffffffffffffffffffffffffffffffffffffffff16908060010160009054906101000a900473ffffffffffffffffffffffffffffffffffffffff1690806002018054600181600116156101000203166002900480601f016020809104026020016040519081016040528092919081815260200182805460018160011615610100020316600290048015610f985780601f10610f6d57610100808354040283529160200191610f98565b820191906000526020600020905b815481529060010190602001808311610f7b57829003601f168201915b5050505050905083565b60036020528060005260406000206000915090505481565b60025481565b600254825114610fcf57600080fd5b80518251148015610fe1575082518251145b610fea57600080fd5b6000600360008773ffffffffffffffffffffffffffffffffffffffff1673ffffffffffffffffffffffffffffffffffffffff1681526020019081526020016000205414611082576040517f08c379a00000000000000000000000000000000000000000000000000000000081526004018080602001828103825260268152602001806123e96026913960400191505060405180910390fd5b6000600460008773ffffffffffffffffffffffffffffffffffffffff1673ffffffffffffffffffffffffffffffffffffffff168152602001908152602001600020541461111a576040517f08c379a000000000000000000000000000000000000000000000000000000000815260040180806020018281038252602481526020018061240f6024913960400191505060405180910390fd5b60fe84511115611175576040517f08c379a00000000000000000000000000000000000000000000000000000000081526004018080602001828103825260288152602001806122466028913960400191505060405180910390fd5b60006007546111848787611f41565b60405160200180807f1901000000000000000000000000000000000000000000000000000000000000815250600201838152602001828152602001925050506040516020818303038152906040528051906020012090507f2d21d6f77cdaea93fae94a0638a5dd9edaf7c528bdee5ba68c5519177af910d9816040518082815260200191505060405180910390a161125b81878660008151811061122457fe5b60200260200101518660008151811061123957fe5b60200260200101518660008151811061124e57fe5b6020026020010151611fcd565b61126457600080fd5b6112cf81600160009054906101000a900473ffffffffffffffffffffffffffffffffffffffff168660018151811061129857fe5b6020026020010151866001815181106112ad57fe5b6020026020010151866001815181106112c257fe5b6020026020010151611fcd565b6112d857600080fd5b60006005866040518082805190602001908083835b6020831061131057805182526020820191506020810190506020830392506112ed565b6001836020036101000a0380198251168184511680821785525050505050509050019150509081526020016040518091039020549050600081111561146557600060066000838152602001908152602001600020905060008160010160009054906101000a900473ffffffffffffffffffffffffffffffffffffffff1690506000600360008373ffffffffffffffffffffffffffffffffffffffff1673ffffffffffffffffffffffffffffffffffffffff16815260200190815260200160002054111561141b57600360008273ffffffffffffffffffffffffffffffffffffffff1673ffffffffffffffffffffffffffffffffffffffff168152602001908152602001600020600090555b888260010160006101000a81548173ffffffffffffffffffffffffffffffffffffffff021916908373ffffffffffffffffffffffffffffffffffffffff1602179055505050611580565b600160005401600081905550600054905060405180606001604052808873ffffffffffffffffffffffffffffffffffffffff168152602001600073ffffffffffffffffffffffffffffffffffffffff168152602001878152506006600083815260200190815260200160002060008201518160000160006101000a81548173ffffffffffffffffffffffffffffffffffffffff021916908373ffffffffffffffffffffffffffffffffffffffff16021790555060208201518160010160006101000a81548173ffffffffffffffffffffffffffffffffffffffff021916908373ffffffffffffffffffffffffffffffffffffffff160217905550604082015181600201908051906020019061157b929190612120565b509050505b80600360008973ffffffffffffffffffffffffffffffffffffffff1673ffffffffffffffffffffffffffffffffffffffff1681526020019081526020016000208190555050505050505050565b6000600460003373ffffffffffffffffffffffffffffffffffffffff1673ffffffffffffffffffffffffffffffffffffffff1681526020019081526020016000205411611665576040517f08c379a00000000000000000000000000000000000000000000000000000000081526004018080602001828103825260418152602001806123286041913960600191505060405180910390fd5b60006005826040518082805190602001908083835b6020831061169d578051825260208201915060208101905060208303925061167a565b6001836020036101000a03801982511681845116808217855250505050505090500191505090815260200160405180910390205414611744576040517f08c379a00000000000000000000000000000000000000000000000000000000081526004018080602001828103825260128152602001807f4944206973207573656420616c7265616479000000000000000000000000000081525060200191505060405180910390fd5b60fe8151111561179f576040517f08c379a00000000000000000000000000000000000000000000000000000000081526004018080602001828103825260288152602001806122466028913960400191505060405180910390fd5b6000600460003373ffffffffffffffffffffffffffffffffffffffff1673ffffffffffffffffffffffffffffffffffffffff16815260200190815260200160002054905060056006600083815260200190815260200160002060020160405180828054600181600116156101000203166002900480156118565780601f10611834576101008083540402835291820191611856565b820191906000526020600020905b815481529060010190602001808311611842575b5050915050908152602001604051809103902060009055816006600083815260200190815260200160002060020190805190602001906118979291906121a0565b505050565b604051808061229a603091396030019050604051809103902081565b6000600360008773ffffffffffffffffffffffffffffffffffffffff1673ffffffffffffffffffffffffffffffffffffffff168152602001908152602001600020541161196d576040517f08c379a000000000000000000000000000000000000000000000000000000000815260040180806020018281038252601c8152602001807f54656d706f726172792061646472657373206e6f74206578697374730000000081525060200191505060405180910390fd5b6000600360008673ffffffffffffffffffffffffffffffffffffffff1673ffffffffffffffffffffffffffffffffffffffff1681526020019081526020016000205414611a05576040517f08c379a000000000000000000000000000000000000000000000000000000000815260040180806020018281038252602e815260200180612369602e913960400191505060405180910390fd5b6000600460008673ffffffffffffffffffffffffffffffffffffffff1673ffffffffffffffffffffffffffffffffffffffff1681526020019081526020016000205414611a9d576040517f08c379a000000000000000000000000000000000000000000000000000000000815260040180806020018281038252602c81526020018061226e602c913960400191505060405180910390fd5b600254825114611aac57600080fd5b80518251148015611abe575082518251145b611ac757600080fd5b6000600360008773ffffffffffffffffffffffffffffffffffffffff1673ffffffffffffffffffffffffffffffffffffffff168152602001908152602001600020549050600073ffffffffffffffffffffffffffffffffffffffff166006600083815260200190815260200160002060000160009054906101000a900473ffffffffffffffffffffffffffffffffffffffff1673ffffffffffffffffffffffffffffffffffffffff1614611bc6576040517f08c379a000000000000000000000000000000000000000000000000000000000815260040180806020018281038252602b8152602001806122fd602b913960400191505060405180910390fd5b6000600854611bd5888861206f565b60405160200180807f190100000000000000000000000000000000000000000000000000000000000081525060020183815260200182815260200192505050604051602081830303815290604052805190602001209050611c75818887600081518110611c3e57fe5b602002602001015187600081518110611c5357fe5b602002602001015187600081518110611c6857fe5b6020026020010151611fcd565b611c7b57fe5b611ce681600160009054906101000a900473ffffffffffffffffffffffffffffffffffffffff1687600181518110611caf57fe5b602002602001015187600181518110611cc457fe5b602002602001015187600181518110611cd957fe5b6020026020010151611fcd565b611cec57fe5b856006600084815260200190815260200160002060000160006101000a81548173ffffffffffffffffffffffffffffffffffffffff021916908373ffffffffffffffffffffffffffffffffffffffff16021790555081600460008873ffffffffffffffffffffffffffffffffffffffff1673ffffffffffffffffffffffffffffffffffffffff1681526020019081526020016000208190555050505050505050565b60405180806122ca603391396033019050604051809103902081565b60075481565b60606000600460008473ffffffffffffffffffffffffffffffffffffffff1673ffffffffffffffffffffffffffffffffffffffff1681526020019081526020016000205490506000811415611e6357600360008473ffffffffffffffffffffffffffffffffffffffff1673ffffffffffffffffffffffffffffffffffffffff1681526020019081526020016000205490506000811415611e625760405180602001604052806000815250915050611f16565b5b600660008281526020019081526020016000206002018054600181600116156101000203166002900480601f016020809104026020016040519081016040528092919081815260200182805460018160011615610100020316600290048015611f0d5780601f10611ee257610100808354040283529160200191611f0d565b820191906000526020600020905b815481529060010190602001808311611ef057829003601f168201915b50505050509150505b919050565b600160009054906101000a900473ffffffffffffffffffffffffffffffffffffffff1681565b600060405180806122ca6033913960330190506040518091039020838380519060200120604051602001808481526020018373ffffffffffffffffffffffffffffffffffffffff1673ffffffffffffffffffffffffffffffffffffffff168152602001828152602001935050505060405160208183030381529060405280519060200120905092915050565b60008473ffffffffffffffffffffffffffffffffffffffff1660018786868660405160008152602001604052604051808581526020018460ff1660ff1681526020018381526020018281526020019450505050506020604051602081039080840390855afa158015612043573d6000803e3d6000fd5b5050506020604051035173ffffffffffffffffffffffffffffffffffffffff1614905095945050505050565b6000604051808061229a60309139603001905060405180910390208383604051602001808481526020018373ffffffffffffffffffffffffffffffffffffffff1673ffffffffffffffffffffffffffffffffffffffff1681526020018273ffffffffffffffffffffffffffffffffffffffff1673ffffffffffffffffffffffffffffffffffffffff168152602001935050505060405160208183030381529060405280519060200120905092915050565b828054600181600116156101000203166002900490600052602060002090601f016020900481019282601f1061216157805160ff191683800117855561218f565b8280016001018555821561218f579182015b8281111561218e578251825591602001919060010190612173565b5b50905061219c9190612220565b5090565b828054600181600116156101000203166002900490600052602060002090601f016020900481019282601f106121e157805160ff191683800117855561220f565b8280016001018555821561220f579182015b8281111561220e5782518255916020019190600101906121f3565b5b50905061221c9190612220565b5090565b61224291905b8082111561223e576000816000905550600101612226565b5090565b9056fe4944206c656e677468206d757374206e6f74206578636565642032353420636861726163746572734164647265737320697320616c726561647920757365642061732061207072696d617279206163636f756e745570646174655072696d61727928616464726573732074656d706f726172792c61646472657373207072696d6172792955706461746554656d706f7261727928616464726573732074656d706f726172792c737472696e67206d656d6f7279206964295072696d61727920616464726573732065786973747320666f7220746865207573657220616c72656164795072696d6172792061646472657373206e6f7420666f756e642e20526571756972656420746f2062652073657420746865207072696d61727920616464726573734164647265737320697320616c7265616479207573656420617320612074656d706f72617279206163636f756e74454950373132446f6d61696e28737472696e67206e616d652c737472696e672076657273696f6e2c75696e7432353620636861696e49642c6164647265737320766572696679696e67436f6e74726163742941646472657373206973207573656420617320612074656d706f72617279206163636f756e744164647265737320697320757365642061732061207072696d617279206163636f756e74a165627a7a723058204b4ae19c00ff235b24b0fe321b1bba247e6eeadc63e375c99b1da0fa5ac53a480029454950373132446f6d61696e28737472696e67206e616d652c737472696e672076657273696f6e2c75696e7432353620636861696e49642c6164647265737320766572696679696e67436f6e747261637429",
  "source": "pragma solidity ^0.5.8;\r\n\r\ncontract Walletless {\r\n\r\n    uint number;            // registered users number\r\n\r\n    struct User {\r\n        address primary;\r\n        address temporary;\r\n        string ID;\r\n    }\r\n\r\n    struct TemporaryUpdating {\r\n        address temporary;\r\n        string ID;\r\n    }\r\n\r\n    struct PrimaryUpdating {\r\n      address temporary;\r\n      address primary;\r\n    }\r\n\r\n    address public gameOwner = 0xFAa502EBe96601782A34b1a947B676FB4e9d090c;\r\n\r\n    uint public threshold;                      // immutable state\r\n    mapping (address => uint) public temporaryAddresses; // mutable state\r\n    mapping (address => uint) public primaryAddresses; // mutable state\r\n    mapping (string => uint) ids;           // Email to User ID\r\n    mapping (uint => User) public users;               // User ID to User data\r\n\r\n    // EIP712 Precomputed hashes:\r\n    struct EIP712Domain {\r\n        string  name;\r\n        string  version;\r\n        uint256 chainId;\r\n        address verifyingContract;\r\n    }\r\n\r\n    bytes32 constant public EIP712DOMAINTYPE_HASH = keccak256(\r\n        \"EIP712Domain(string name,string version,uint256 chainId,address verifyingContract)\"\r\n    );\r\n\r\n    bytes32 constant public TXTYPE_HASH_TEMPORARY = keccak256(\r\n        \"UpdateTemporary(address temporary,string memory id)\"\r\n    );\r\n    bytes32 constant public TXTYPE_HASH_PRIMARY = keccak256(\r\n        \"UpdatePrimary(address temporary,address primary)\"\r\n    );\r\n\r\n    bytes32 public DOMAIN_SEPARATOR_TEMPORARY;          // hash for EIP712, computed from contract address\r\n    bytes32 public DOMAIN_SEPARATOR_PRIMARY;            // hash for EIP712, computed from contract address\r\n\r\n    // Note that owners_ must be strictly increasing, in order to prevent duplicates\r\n    constructor(uint chainId) public {\r\n        threshold = 2;\r\n        number = 0;\r\n\r\n        DOMAIN_SEPARATOR_PRIMARY = hash(EIP712Domain({\r\n            name: \"Update Primary Address\",\r\n            version: '1',\r\n            chainId: chainId,\r\n            //verifyingContract: address(this)\r\n            verifyingContract: 0x5E72914535f202659083Db3a02C984188Fa26e9f\r\n        }));\r\n\r\n        DOMAIN_SEPARATOR_TEMPORARY = hash(EIP712Domain({\r\n            name: \"Update Temporary Address\",\r\n            version: '1',\r\n            chainId: chainId,\r\n            verifyingContract: 0x5E72914535f202659083Db3a02C984188Fa26e9f\r\n            //verifyingContract: address(this)\r\n        }));\r\n    }\r\n\r\n    function hash(EIP712Domain memory eip712Domain) internal returns (bytes32) {\r\n\r\n        bytes memory encoded = abi.encode(\r\n            EIP712DOMAINTYPE_HASH,\r\n            keccak256(bytes(eip712Domain.name)),\r\n            keccak256(bytes(eip712Domain.version)),\r\n            eip712Domain.chainId,\r\n            eip712Domain.verifyingContract\r\n        );\r\n\r\n\r\n        return keccak256(encoded);\r\n    }\r\n\r\n    function getTemporaryHash(address temporary, string memory ID) internal pure returns (bytes32) {\r\n      return keccak256(abi.encode(\r\n        TXTYPE_HASH_TEMPORARY,\r\n        temporary,\r\n        keccak256(bytes(ID))\r\n      ));\r\n    }\r\n\r\n    function getPrimaryHash(address temporary, address primary) internal pure returns (bytes32) {\r\n      return keccak256(abi.encode(\r\n        TXTYPE_HASH_PRIMARY,\r\n        temporary,\r\n        primary\r\n      ));\r\n    }\r\n\r\n    function verify(bytes32 digest, address signer, uint8 v, bytes32 r, bytes32 s) internal pure returns (bool) {\r\n        // Note: we need to use `encodePacked` here instead of `encode`.\r\n        return ecrecover(digest, v, r, s) == signer;\r\n    }\r\n\r\n    /// Add a temporary address to the account\r\n    function UpdateTemporary(address temporary, string memory ID, uint8[] memory sigV, bytes32[] memory sigR, bytes32[] memory sigS) public {\r\n        require(sigR.length == threshold);\r\n        require(sigR.length == sigS.length && sigR.length == sigV.length);\r\n\r\n        require(temporaryAddresses[temporary] == 0, \"Address is used as a temporary account\");\r\n        require(primaryAddresses[temporary] == 0, \"Address is used as a primary account\");\r\n        require(bytes(ID).length <= 254, \"ID length must not exceed 254 characters\");\r\n\r\n        bytes32 digest = keccak256(abi.encodePacked(\r\n            \"\\x19\\x01\",\r\n            DOMAIN_SEPARATOR_TEMPORARY,\r\n            getTemporaryHash(temporary, ID)\r\n        ));\r\n        emit logBytes32(digest);\r\n\r\n        require(verify(digest, temporary, sigV[0], sigR[0], sigS[0]));\r\n        require(verify(digest, gameOwner, sigV[1], sigR[1], sigS[1]));\r\n\r\n        // if id exists,\r\n        // remove the temporary account\r\n        // update the user's temporary account\r\n        uint userNumber = ids[ID];\r\n        if (userNumber > 0) {\r\n            User storage user = users[userNumber];\r\n\r\n            address oldTemporary = user.temporary;\r\n            if (temporaryAddresses[oldTemporary] > 0) {\r\n                delete temporaryAddresses[oldTemporary];\r\n            }\r\n\r\n            user.temporary = temporary;\r\n        }\r\n        else {\r\n            number = number + 1;\r\n            userNumber = number;\r\n\r\n            users[userNumber] = User(temporary, address(0), ID);\r\n        }\r\n\r\n        // register the temporary account\r\n        temporaryAddresses[temporary] = userNumber;\r\n    }\r\n\r\n    event logString(string str);\r\n    event logBytes32(bytes32 bts);\r\n    event logBytes(bytes bts);\r\n\r\n    // Add a primary wallet address (account) of a user.\r\n    // This operation is valid once only. After adding primary address, player can not change it later\r\n    // So in future version we could change that\r\n    //\r\n    // requirements to update the primary address is to have an temporary address with ID\r\n    function UpdatePrimary(address temporary, address primary, uint8[] memory sigV, bytes32[] memory sigR, bytes32[] memory sigS) public {\r\n        require(temporaryAddresses[temporary] > 0, \"Temporary address not exists\");\r\n        require(temporaryAddresses[primary] == 0, \"Address is already used as a temporary account\");\r\n        require(primaryAddresses[primary] == 0, \"Address is already used as a primary account\");\r\n\r\n        require(sigR.length == threshold);\r\n        require(sigR.length == sigS.length && sigR.length == sigV.length);\r\n\r\n        // if id exists,\r\n        // remove the temporary account\r\n        // update the user's temporary account\r\n        uint userNumber = temporaryAddresses[temporary];\r\n        require(users[userNumber].primary == address(0), \"Primary address exists for the user already\");\r\n\r\n        bytes32 digest = keccak256(abi.encodePacked(\r\n            \"\\x19\\x01\",\r\n            DOMAIN_SEPARATOR_PRIMARY,\r\n            getPrimaryHash(temporary, primary)\r\n        ));\r\n\r\n        assert(verify(digest, temporary, sigV[0], sigR[0], sigS[0]));\r\n        assert(verify(digest, gameOwner, sigV[1], sigR[1], sigS[1]));\r\n\r\n        users[userNumber].primary = primary;\r\n\r\n        // register the primary account\r\n        primaryAddresses[primary] = userNumber;\r\n    }\r\n\r\n    // Can update the ID if primary address is added.\r\n    // Only primary address hold can invoke the function\r\n    function UpdateID(string memory id_) public {\r\n        require(primaryAddresses[msg.sender] > 0, \"Primary address not found. Required to be set the primary address\");\r\n        require(ids[id_] == 0, \"ID is used already\");\r\n        require(bytes(id_).length <= 254, \"ID length must not exceed 254 characters\");\r\n\r\n        uint userNumber = primaryAddresses[msg.sender];\r\n\r\n        // remove the previous id\r\n        delete ids[users[userNumber].ID];\r\n\r\n        users[userNumber].ID = id_;\r\n    }\r\n\r\n    /// Returns User.ID by temporary or primary account used by the player\r\n    function GetID(address account) public view returns(string memory) {\r\n        uint userNumber = primaryAddresses[account];\r\n        if (userNumber == 0) {\r\n            userNumber = temporaryAddresses[account];\r\n\r\n            if (userNumber == 0) {\r\n                return \"\";\r\n            }\r\n        }\r\n\r\n        return users[userNumber].ID;\r\n    }\r\n\r\n    function GetNumber (address account) public view returns (uint) {\r\n      uint userNumber = primaryAddresses[account];\r\n      if (userNumber == 0) {\r\n          userNumber = temporaryAddresses[account];\r\n      }\r\n\r\n      return userNumber;\r\n    }\r\n\r\n    function GetTemporary(string memory id_) public view returns (address) {\r\n        uint userNumber = ids[id_];\r\n        if (userNumber == 0) {\r\n            return address(0);\r\n        }\r\n        return users[userNumber].temporary;\r\n    }\r\n\r\n    function GetPrimary(string memory id_) public view returns (address) {\r\n        uint userNumber = ids[id_];\r\n        if (userNumber == 0) {\r\n            return address(0);\r\n        }\r\n        return users[userNumber].primary;\r\n    }\r\n}\r\n",
  "sourcePath": "/mnt/c/repos/blocklords-loom-contracts/contracts/Walletless.sol",
  "compiler": {
    "name": "solc",
    "version": "0.5.8+commit.23d335f2.Emscripten.clang"
  },
  "schemaVersion": "3.0.15",
  "updatedAt": "2020-02-09T18:24:30.368Z",
  "devdoc": {
    "methods": {}
  },
  "userdoc": {
    "methods": {
      "GetID(address)": {
        "notice": "Returns User.ID by temporary or primary account used by the player"
      },
      "UpdateTemporary(address,string,uint8[],bytes32[],bytes32[])": {
        "notice": "Add a temporary address to the account"
      }
    }
  }
}