{
  "contractName": "Walletless",
  "abi": [
    {
      "constant": true,
      "inputs": [],
      "name": "DOMAIN_SEPARATOR_PRIMARY",
      "outputs": [
        {
          "name": "",
          "type": "bytes32"
        }
      ],
      "payable": false,
      "stateMutability": "view",
      "type": "function"
    },
    {
      "constant": true,
      "inputs": [
        {
          "name": "",
          "type": "address"
        }
      ],
      "name": "primaryAddresses",
      "outputs": [
        {
          "name": "",
          "type": "uint256"
        }
      ],
      "payable": false,
      "stateMutability": "view",
      "type": "function"
    },
    {
      "constant": true,
      "inputs": [],
      "name": "EIP712DOMAINTYPE_HASH",
      "outputs": [
        {
          "name": "",
          "type": "bytes32"
        }
      ],
      "payable": false,
      "stateMutability": "view",
      "type": "function"
    },
    {
      "constant": true,
      "inputs": [
        {
          "name": "",
          "type": "uint256"
        }
      ],
      "name": "users",
      "outputs": [
        {
          "name": "primary",
          "type": "address"
        },
        {
          "name": "temporary",
          "type": "address"
        },
        {
          "name": "ID",
          "type": "string"
        }
      ],
      "payable": false,
      "stateMutability": "view",
      "type": "function"
    },
    {
      "constant": true,
      "inputs": [
        {
          "name": "",
          "type": "address"
        }
      ],
      "name": "temporaryAddresses",
      "outputs": [
        {
          "name": "",
          "type": "uint256"
        }
      ],
      "payable": false,
      "stateMutability": "view",
      "type": "function"
    },
    {
      "constant": true,
      "inputs": [],
      "name": "threshold",
      "outputs": [
        {
          "name": "",
          "type": "uint256"
        }
      ],
      "payable": false,
      "stateMutability": "view",
      "type": "function"
    },
    {
      "constant": true,
      "inputs": [],
      "name": "TXTYPE_HASH_PRIMARY",
      "outputs": [
        {
          "name": "",
          "type": "bytes32"
        }
      ],
      "payable": false,
      "stateMutability": "view",
      "type": "function"
    },
    {
      "constant": true,
      "inputs": [],
      "name": "TXTYPE_HASH_TEMPORARY",
      "outputs": [
        {
          "name": "",
          "type": "bytes32"
        }
      ],
      "payable": false,
      "stateMutability": "view",
      "type": "function"
    },
    {
      "constant": true,
      "inputs": [],
      "name": "DOMAIN_SEPARATOR_TEMPORARY",
      "outputs": [
        {
          "name": "",
          "type": "bytes32"
        }
      ],
      "payable": false,
      "stateMutability": "view",
      "type": "function"
    },
    {
      "constant": true,
      "inputs": [],
      "name": "gameOwner",
      "outputs": [
        {
          "name": "",
          "type": "address"
        }
      ],
      "payable": false,
      "stateMutability": "view",
      "type": "function"
    },
    {
      "inputs": [
        {
          "name": "chainId",
          "type": "uint256"
        }
      ],
      "payable": false,
      "stateMutability": "nonpayable",
      "type": "constructor"
    },
    {
      "anonymous": false,
      "inputs": [
        {
          "indexed": false,
          "name": "str",
          "type": "string"
        }
      ],
      "name": "logString",
      "type": "event"
    },
    {
      "anonymous": false,
      "inputs": [
        {
          "indexed": false,
          "name": "bts",
          "type": "bytes32"
        }
      ],
      "name": "logBytes32",
      "type": "event"
    },
    {
      "anonymous": false,
      "inputs": [
        {
          "indexed": false,
          "name": "bts",
          "type": "bytes"
        }
      ],
      "name": "logBytes",
      "type": "event"
    },
    {
      "constant": false,
      "inputs": [
        {
          "name": "temporary",
          "type": "address"
        },
        {
          "name": "ID",
          "type": "string"
        },
        {
          "name": "sigV",
          "type": "uint8"
        },
        {
          "name": "sigR",
          "type": "bytes32"
        },
        {
          "name": "sigS",
          "type": "bytes32"
        }
      ],
      "name": "UpdateTemporary",
      "outputs": [],
      "payable": false,
      "stateMutability": "nonpayable",
      "type": "function"
    },
    {
      "constant": false,
      "inputs": [
        {
          "name": "temporary",
          "type": "address"
        },
        {
          "name": "ID",
          "type": "string"
        }
      ],
      "name": "LogTemporaryHash",
      "outputs": [
        {
          "name": "",
          "type": "bytes32"
        }
      ],
      "payable": false,
      "stateMutability": "nonpayable",
      "type": "function"
    },
    {
      "constant": true,
      "inputs": [
        {
          "name": "ID",
          "type": "string"
        }
      ],
      "name": "stringToBytes",
      "outputs": [
        {
          "name": "",
          "type": "bytes"
        }
      ],
      "payable": false,
      "stateMutability": "pure",
      "type": "function"
    },
    {
      "constant": false,
      "inputs": [
        {
          "name": "temporary",
          "type": "address"
        },
        {
          "name": "primary",
          "type": "address"
        },
        {
          "name": "sigV",
          "type": "uint8[]"
        },
        {
          "name": "sigR",
          "type": "bytes32[]"
        },
        {
          "name": "sigS",
          "type": "bytes32[]"
        }
      ],
      "name": "UpdatePrimary",
      "outputs": [],
      "payable": false,
      "stateMutability": "nonpayable",
      "type": "function"
    },
    {
      "constant": false,
      "inputs": [
        {
          "name": "id_",
          "type": "string"
        }
      ],
      "name": "UpdateID",
      "outputs": [],
      "payable": false,
      "stateMutability": "nonpayable",
      "type": "function"
    },
    {
      "constant": true,
      "inputs": [
        {
          "name": "account",
          "type": "address"
        }
      ],
      "name": "GetID",
      "outputs": [
        {
          "name": "",
          "type": "string"
        }
      ],
      "payable": false,
      "stateMutability": "view",
      "type": "function"
    },
    {
      "constant": true,
      "inputs": [
        {
          "name": "id_",
          "type": "string"
        }
      ],
      "name": "GetTemporary",
      "outputs": [
        {
          "name": "",
          "type": "address"
        }
      ],
      "payable": false,
      "stateMutability": "view",
      "type": "function"
    },
    {
      "constant": true,
      "inputs": [
        {
          "name": "id_",
          "type": "string"
        }
      ],
      "name": "GetPrimary",
      "outputs": [
        {
          "name": "",
          "type": "address"
        }
      ],
      "payable": false,
      "stateMutability": "view",
      "type": "function"
    }
  ],
  "bytecode": "0x608060405233600160006101000a81548173ffffffffffffffffffffffffffffffffffffffff021916908373ffffffffffffffffffffffffffffffffffffffff1602179055503480156200005257600080fd5b5060405160208062002398833981018060405260208110156200007457600080fd5b810190808051906020019092919050505060028081905550600080819055506200015860405180608001604052806040518060400160405280601681526020017f557064617465205072696d61727920416464726573730000000000000000000081525081526020016040518060400160405280600181526020017f31000000000000000000000000000000000000000000000000000000000000008152508152602001838152602001735e72914535f202659083db3a02c984188fa26e9f73ffffffffffffffffffffffffffffffffffffffff168152506200023060201b60201c565b6008819055506200022360405180608001604052806040518060400160405280601881526020017f5570646174652054656d706f726172792041646472657373000000000000000081525081526020016040518060400160405280600181526020017f31000000000000000000000000000000000000000000000000000000000000008152508152602001838152602001735e72914535f202659083db3a02c984188fa26e9f73ffffffffffffffffffffffffffffffffffffffff168152506200023060201b60201c565b60078190555050620002e9565b60006060604051808062002346605291396052019050604051809103902083600001518051906020012084602001518051906020012085604001518660600151604051602001808681526020018581526020018481526020018381526020018273ffffffffffffffffffffffffffffffffffffffff1673ffffffffffffffffffffffffffffffffffffffff1681526020019550505050505060405160208183030381529060405290508080519060200120915050919050565b61204d80620002f96000396000f3fe608060405234801561001057600080fd5b50600436106101165760003560e01c806342cde4e8116100a2578063c9e3014311610071578063c9e3014314610a0c578063d2621a5114610a2a578063e106fb4b14610a48578063f5e889aa14610b7c578063f6b12f2814610c3957610116565b806342cde4e8146106f55780639d904fd814610713578063b2c352e6146107ce578063bcae2216146107ec57610116565b80631a7d7b5b116100e95780631a7d7b5b146103875780631ed23c8c14610476578063365b98b21461049457806340a49607146105a15780634189a0c81461069d57610116565b8063080f897e1461011b5780630f7e4e80146102165780631765e8771461023457806318785a4a1461028c575b600080fd5b6101d46004803603602081101561013157600080fd5b810190808035906020019064010000000081111561014e57600080fd5b82018360208201111561016057600080fd5b8035906020019184600183028401116401000000008311171561018257600080fd5b91908080601f016020809104026020016040519081016040528093929190818152602001838380828437600081840152601f19601f820116905080830192505050505050509192919290505050610c83565b604051808273ffffffffffffffffffffffffffffffffffffffff1673ffffffffffffffffffffffffffffffffffffffff16815260200191505060405180910390f35b61021e610d45565b6040518082815260200191505060405180910390f35b6102766004803603602081101561024a57600080fd5b81019080803573ffffffffffffffffffffffffffffffffffffffff169060200190929190505050610d4b565b6040518082815260200191505060405180910390f35b610345600480360360208110156102a257600080fd5b81019080803590602001906401000000008111156102bf57600080fd5b8201836020820111156102d157600080fd5b803590602001918460018302840111640100000000831117156102f357600080fd5b91908080601f016020809104026020016040519081016040528093929190818152602001838380828437600081840152601f19601f820116905080830192505050505050509192919290505050610d63565b604051808273ffffffffffffffffffffffffffffffffffffffff1673ffffffffffffffffffffffffffffffffffffffff16815260200191505060405180910390f35b6104606004803603604081101561039d57600080fd5b81019080803573ffffffffffffffffffffffffffffffffffffffff169060200190929190803590602001906401000000008111156103da57600080fd5b8201836020820111156103ec57600080fd5b8035906020019184600183028401116401000000008311171561040e57600080fd5b91908080601f016020809104026020016040519081016040528093929190818152602001838380828437600081840152601f19601f820116905080830192505050505050509192919290505050610e25565b6040518082815260200191505060405180910390f35b61047e610f39565b6040518082815260200191505060405180910390f35b6104c0600480360360208110156104aa57600080fd5b8101908080359060200190929190505050610f55565b604051808473ffffffffffffffffffffffffffffffffffffffff1673ffffffffffffffffffffffffffffffffffffffff1681526020018373ffffffffffffffffffffffffffffffffffffffff1673ffffffffffffffffffffffffffffffffffffffff16815260200180602001828103825283818151815260200191508051906020019080838360005b83811015610564578082015181840152602081019050610549565b50505050905090810190601f1680156105915780820380516001836020036101000a031916815260200191505b5094505050505060405180910390f35b61069b600480360360a08110156105b757600080fd5b81019080803573ffffffffffffffffffffffffffffffffffffffff169060200190929190803590602001906401000000008111156105f457600080fd5b82018360208201111561060657600080fd5b8035906020019184600183028401116401000000008311171561062857600080fd5b91908080601f016020809104026020016040519081016040528093929190818152602001838380828437600081840152601f19601f820116905080830192505050505050509192919290803560ff1690602001909291908035906020019092919080359060200190929190505050611057565b005b6106df600480360360208110156106b357600080fd5b81019080803573ffffffffffffffffffffffffffffffffffffffff16906020019092919050505061122f565b6040518082815260200191505060405180910390f35b6106fd611247565b6040518082815260200191505060405180910390f35b6107cc6004803603602081101561072957600080fd5b810190808035906020019064010000000081111561074657600080fd5b82018360208201111561075857600080fd5b8035906020019184600183028401116401000000008311171561077a57600080fd5b91908080601f016020809104026020016040519081016040528093929190818152602001838380828437600081840152601f19601f82011690508083019250505050505050919291929050505061124d565b005b6107d661151c565b6040518082815260200191505060405180910390f35b610a0a600480360360a081101561080257600080fd5b81019080803573ffffffffffffffffffffffffffffffffffffffff169060200190929190803573ffffffffffffffffffffffffffffffffffffffff1690602001909291908035906020019064010000000081111561085f57600080fd5b82018360208201111561087157600080fd5b8035906020019184602083028401116401000000008311171561089357600080fd5b919080806020026020016040519081016040528093929190818152602001838360200280828437600081840152601f19601f820116905080830192505050505050509192919290803590602001906401000000008111156108f357600080fd5b82018360208201111561090557600080fd5b8035906020019184602083028401116401000000008311171561092757600080fd5b919080806020026020016040519081016040528093929190818152602001838360200280828437600081840152601f19601f8201169050808301925050505050505091929192908035906020019064010000000081111561098757600080fd5b82018360208201111561099957600080fd5b803590602001918460208302840111640100000000831117156109bb57600080fd5b919080806020026020016040519081016040528093929190818152602001838360200280828437600081840152601f19601f820116905080830192505050505050509192919290505050611538565b005b610a14611a0e565b6040518082815260200191505060405180910390f35b610a32611a2a565b6040518082815260200191505060405180910390f35b610b0160048036036020811015610a5e57600080fd5b8101908080359060200190640100000000811115610a7b57600080fd5b820183602082011115610a8d57600080fd5b80359060200191846001830284011164010000000083111715610aaf57600080fd5b91908080601f016020809104026020016040519081016040528093929190818152602001838380828437600081840152601f19601f820116905080830192505050505050509192919290505050611a30565b6040518080602001828103825283818151815260200191508051906020019080838360005b83811015610b41578082015181840152602081019050610b26565b50505050905090810190601f168015610b6e5780820380516001836020036101000a031916815260200191505b509250505060405180910390f35b610bbe60048036036020811015610b9257600080fd5b81019080803573ffffffffffffffffffffffffffffffffffffffff169060200190929190505050611a3f565b6040518080602001828103825283818151815260200191508051906020019080838360005b83811015610bfe578082015181840152602081019050610be3565b50505050905090810190601f168015610c2b5780820380516001836020036101000a031916815260200191505b509250505060405180910390f35b610c41611baa565b604051808273ffffffffffffffffffffffffffffffffffffffff1673ffffffffffffffffffffffffffffffffffffffff16815260200191505060405180910390f35b6000806005836040518082805190602001908083835b60208310610cbc5780518252602082019150602081019050602083039250610c99565b6001836020036101000a03801982511681845116808217855250505050505090500191505090815260200160405180910390205490506000811415610d05576000915050610d40565b6006600082815260200190815260200160002060010160009054906101000a900473ffffffffffffffffffffffffffffffffffffffff169150505b919050565b60085481565b60046020528060005260406000206000915090505481565b6000806005836040518082805190602001908083835b60208310610d9c5780518252602082019150602081019050602083039250610d79565b6001836020036101000a03801982511681845116808217855250505050505090500191505090815260200160405180910390205490506000811415610de5576000915050610e20565b6006600082815260200190815260200160002060000160009054906101000a900473ffffffffffffffffffffffffffffffffffffffff169150505b919050565b60006060600854610e368585611bd0565b60405160200180807f19010000000000000000000000000000000000000000000000000000000000008152506002018381526020018281526020019250505060405160208183030381529060405290506000818051906020012090507fe17bf956fe626615d5612305d443a77aed846b203d5ccd690aeb5b0f5b404b6e826040518080602001828103825283818151815260200191508051906020019080838360005b83811015610ef4578082015181840152602081019050610ed9565b50505050905090810190601f168015610f215780820380516001836020036101000a031916815260200191505b509250505060405180910390a1809250505092915050565b6040518080611f86605291396052019050604051809103902081565b60066020528060005260406000206000915090508060000160009054906101000a900473ffffffffffffffffffffffffffffffffffffffff16908060010160009054906101000a900473ffffffffffffffffffffffffffffffffffffffff1690806002018054600181600116156101000203166002900480601f01602080910402602001604051908101604052809291908181526020018280546001816001161561010002031660029004801561104d5780601f106110225761010080835404028352916020019161104d565b820191906000526020600020905b81548152906001019060200180831161103057829003601f168201915b5050505050905083565b6000600360008773ffffffffffffffffffffffffffffffffffffffff1673ffffffffffffffffffffffffffffffffffffffff16815260200190815260200160002054146110ef576040517f08c379a0000000000000000000000000000000000000000000000000000000008152600401808060200182810382526026815260200180611fd86026913960400191505060405180910390fd5b6000600460008773ffffffffffffffffffffffffffffffffffffffff1673ffffffffffffffffffffffffffffffffffffffff1681526020019081526020016000205414611187576040517f08c379a0000000000000000000000000000000000000000000000000000000008152600401808060200182810382526024815260200180611ffe6024913960400191505060405180910390fd5b60fe845111156111e2576040517f08c379a0000000000000000000000000000000000000000000000000000000008152600401808060200182810382526028815260200180611e356028913960400191505060405180910390fd5b60006111ee8686611bd0565b90507f2d21d6f77cdaea93fae94a0638a5dd9edaf7c528bdee5ba68c5519177af910d9816040518082815260200191505060405180910390a1505050505050565b60036020528060005260406000206000915090505481565b60025481565b6000600460003373ffffffffffffffffffffffffffffffffffffffff1673ffffffffffffffffffffffffffffffffffffffff16815260200190815260200160002054116112e5576040517f08c379a0000000000000000000000000000000000000000000000000000000008152600401808060200182810382526041815260200180611f176041913960600191505060405180910390fd5b60006005826040518082805190602001908083835b6020831061131d57805182526020820191506020810190506020830392506112fa565b6001836020036101000a038019825116818451168082178552505050505050905001915050908152602001604051809103902054146113c4576040517f08c379a00000000000000000000000000000000000000000000000000000000081526004018080602001828103825260128152602001807f4944206973207573656420616c7265616479000000000000000000000000000081525060200191505060405180910390fd5b60fe8151111561141f576040517f08c379a0000000000000000000000000000000000000000000000000000000008152600401808060200182810382526028815260200180611e356028913960400191505060405180910390fd5b6000600460003373ffffffffffffffffffffffffffffffffffffffff1673ffffffffffffffffffffffffffffffffffffffff16815260200190815260200160002054905060056006600083815260200190815260200160002060020160405180828054600181600116156101000203166002900480156114d65780601f106114b45761010080835404028352918201916114d6565b820191906000526020600020905b8154815290600101906020018083116114c2575b505091505090815260200160405180910390206000905581600660008381526020019081526020016000206002019080519060200190611517929190611d8f565b505050565b6040518080611e89603091396030019050604051809103902081565b6000600360008773ffffffffffffffffffffffffffffffffffffffff1673ffffffffffffffffffffffffffffffffffffffff16815260200190815260200160002054116115ed576040517f08c379a000000000000000000000000000000000000000000000000000000000815260040180806020018281038252601c8152602001807f54656d706f726172792061646472657373206e6f74206578697374730000000081525060200191505060405180910390fd5b6000600360008673ffffffffffffffffffffffffffffffffffffffff1673ffffffffffffffffffffffffffffffffffffffff1681526020019081526020016000205414611685576040517f08c379a000000000000000000000000000000000000000000000000000000000815260040180806020018281038252602e815260200180611f58602e913960400191505060405180910390fd5b6000600460008673ffffffffffffffffffffffffffffffffffffffff1673ffffffffffffffffffffffffffffffffffffffff168152602001908152602001600020541461171d576040517f08c379a000000000000000000000000000000000000000000000000000000000815260040180806020018281038252602c815260200180611e5d602c913960400191505060405180910390fd5b60025482511461172c57600080fd5b8051825114801561173e575082518251145b61174757600080fd5b6000600360008773ffffffffffffffffffffffffffffffffffffffff1673ffffffffffffffffffffffffffffffffffffffff168152602001908152602001600020549050600073ffffffffffffffffffffffffffffffffffffffff166006600083815260200190815260200160002060000160009054906101000a900473ffffffffffffffffffffffffffffffffffffffff1673ffffffffffffffffffffffffffffffffffffffff1614611846576040517f08c379a000000000000000000000000000000000000000000000000000000000815260040180806020018281038252602b815260200180611eec602b913960400191505060405180910390fd5b60006008546118558888611c3c565b60405160200180807f1901000000000000000000000000000000000000000000000000000000000000815250600201838152602001828152602001925050506040516020818303038152906040528051906020012090506118f58188876000815181106118be57fe5b6020026020010151876000815181106118d357fe5b6020026020010151876000815181106118e857fe5b6020026020010151611ced565b6118fb57fe5b61196681600160009054906101000a900473ffffffffffffffffffffffffffffffffffffffff168760018151811061192f57fe5b60200260200101518760018151811061194457fe5b60200260200101518760018151811061195957fe5b6020026020010151611ced565b61196c57fe5b856006600084815260200190815260200160002060000160006101000a81548173ffffffffffffffffffffffffffffffffffffffff021916908373ffffffffffffffffffffffffffffffffffffffff16021790555081600460008873ffffffffffffffffffffffffffffffffffffffff1673ffffffffffffffffffffffffffffffffffffffff1681526020019081526020016000208190555050505050505050565b6040518080611eb9603391396033019050604051809103902081565b60075481565b60608082905080915050919050565b60606000600460008473ffffffffffffffffffffffffffffffffffffffff1673ffffffffffffffffffffffffffffffffffffffff1681526020019081526020016000205490506000811415611af257600360008473ffffffffffffffffffffffffffffffffffffffff1673ffffffffffffffffffffffffffffffffffffffff1681526020019081526020016000205490506000811415611af15760405180602001604052806000815250915050611ba5565b5b600660008281526020019081526020016000206002018054600181600116156101000203166002900480601f016020809104026020016040519081016040528092919081815260200182805460018160011615610100020316600290048015611b9c5780601f10611b7157610100808354040283529160200191611b9c565b820191906000526020600020905b815481529060010190602001808311611b7f57829003601f168201915b50505050509150505b919050565b600160009054906101000a900473ffffffffffffffffffffffffffffffffffffffff1681565b6000828280519060200120604051602001808373ffffffffffffffffffffffffffffffffffffffff1673ffffffffffffffffffffffffffffffffffffffff1681526020018281526020019250505060405160208183030381529060405280519060200120905092915050565b60006040518080611e8960309139603001905060405180910390208383604051602001808481526020018373ffffffffffffffffffffffffffffffffffffffff1673ffffffffffffffffffffffffffffffffffffffff1681526020018273ffffffffffffffffffffffffffffffffffffffff1673ffffffffffffffffffffffffffffffffffffffff168152602001935050505060405160208183030381529060405280519060200120905092915050565b60008473ffffffffffffffffffffffffffffffffffffffff1660018786868660405160008152602001604052604051808581526020018460ff1660ff1681526020018381526020018281526020019450505050506020604051602081039080840390855afa158015611d63573d6000803e3d6000fd5b5050506020604051035173ffffffffffffffffffffffffffffffffffffffff1614905095945050505050565b828054600181600116156101000203166002900490600052602060002090601f016020900481019282601f10611dd057805160ff1916838001178555611dfe565b82800160010185558215611dfe579182015b82811115611dfd578251825591602001919060010190611de2565b5b509050611e0b9190611e0f565b5090565b611e3191905b80821115611e2d576000816000905550600101611e15565b5090565b9056fe4944206c656e677468206d757374206e6f74206578636565642032353420636861726163746572734164647265737320697320616c726561647920757365642061732061207072696d617279206163636f756e745570646174655072696d61727928616464726573732074656d706f726172792c61646472657373207072696d6172792955706461746554656d706f7261727928616464726573732074656d706f726172792c737472696e67206d656d6f7279206964295072696d61727920616464726573732065786973747320666f7220746865207573657220616c72656164795072696d6172792061646472657373206e6f7420666f756e642e20526571756972656420746f2062652073657420746865207072696d61727920616464726573734164647265737320697320616c7265616479207573656420617320612074656d706f72617279206163636f756e74454950373132446f6d61696e28737472696e67206e616d652c737472696e672076657273696f6e2c75696e7432353620636861696e49642c6164647265737320766572696679696e67436f6e74726163742941646472657373206973207573656420617320612074656d706f72617279206163636f756e744164647265737320697320757365642061732061207072696d617279206163636f756e74a165627a7a723058206589e7b25beefa899c23b7ecc8e79c9c0bbcf2d4c3ab583146e7a6b186d1b0240029454950373132446f6d61696e28737472696e67206e616d652c737472696e672076657273696f6e2c75696e7432353620636861696e49642c6164647265737320766572696679696e67436f6e747261637429",
  "source": "pragma solidity ^0.5.8;\r\n\r\ncontract Walletless {\r\n\r\n    uint number;            // registered users number\r\n\r\n    struct User {\r\n        address primary;\r\n        address temporary;\r\n        string ID;\r\n    }\r\n\r\n    struct TemporaryUpdating {\r\n        address temporary;\r\n        string ID;\r\n    }\r\n\r\n    struct PrimaryUpdating {\r\n      address temporary;\r\n      address primary;\r\n    }\r\n\r\n    address public gameOwner = msg.sender;\r\n\r\n    uint public threshold;                      // immutable state\r\n    mapping (address => uint) public temporaryAddresses; // mutable state\r\n    mapping (address => uint) public primaryAddresses; // mutable state\r\n    mapping (string => uint) ids;           // Email to User ID\r\n    mapping (uint => User) public users;               // User ID to User data\r\n\r\n    // EIP712 Precomputed hashes:\r\n    struct EIP712Domain {\r\n        string  name;\r\n        string  version;\r\n        uint256 chainId;\r\n        address verifyingContract;\r\n    }\r\n\r\n    bytes32 constant public EIP712DOMAINTYPE_HASH = keccak256(\r\n        \"EIP712Domain(string name,string version,uint256 chainId,address verifyingContract)\"\r\n    );\r\n\r\n    bytes32 constant public TXTYPE_HASH_TEMPORARY = keccak256(\r\n        \"UpdateTemporary(address temporary,string memory id)\"\r\n    );\r\n    bytes32 constant public TXTYPE_HASH_PRIMARY = keccak256(\r\n        \"UpdatePrimary(address temporary,address primary)\"\r\n    );\r\n\r\n    bytes32 public DOMAIN_SEPARATOR_TEMPORARY;          // hash for EIP712, computed from contract address\r\n    bytes32 public DOMAIN_SEPARATOR_PRIMARY;            // hash for EIP712, computed from contract address\r\n\r\n    // Note that owners_ must be strictly increasing, in order to prevent duplicates\r\n    constructor(uint chainId) public {\r\n        threshold = 2;\r\n        number = 0;\r\n\r\n        DOMAIN_SEPARATOR_PRIMARY = hash(EIP712Domain({\r\n            name: \"Update Primary Address\",\r\n            version: '1',\r\n            chainId: chainId,\r\n            //verifyingContract: address(this)\r\n            verifyingContract: 0x5E72914535f202659083Db3a02C984188Fa26e9f\r\n        }));\r\n\r\n        DOMAIN_SEPARATOR_TEMPORARY = hash(EIP712Domain({\r\n            name: \"Update Temporary Address\",\r\n            version: '1',\r\n            chainId: chainId,\r\n            verifyingContract: 0x5E72914535f202659083Db3a02C984188Fa26e9f\r\n            //verifyingContract: address(this)\r\n        }));\r\n    }\r\n\r\n    function hash(EIP712Domain memory eip712Domain) internal returns (bytes32) {\r\n\r\n        bytes memory encoded = abi.encode(\r\n            EIP712DOMAINTYPE_HASH,\r\n            keccak256(bytes(eip712Domain.name)),\r\n            keccak256(bytes(eip712Domain.version)),\r\n            eip712Domain.chainId,\r\n            eip712Domain.verifyingContract\r\n        );\r\n\r\n\r\n        return keccak256(encoded);\r\n    }\r\n\r\n    function getTemporaryHash(address temporary, string memory ID) internal pure returns (bytes32) {\r\n      return keccak256(abi.encode(\r\n        temporary,\r\n        keccak256(bytes(ID))\r\n      ));\r\n    }\r\n\r\n    function getPrimaryHash(address temporary, address primary) internal pure returns (bytes32) {\r\n      return keccak256(abi.encode(\r\n        TXTYPE_HASH_PRIMARY,\r\n        temporary,\r\n        primary\r\n      ));\r\n    }\r\n\r\n    function verify(bytes32 digest, address signer, uint8 v, bytes32 r, bytes32 s) internal pure returns (bool) {\r\n        // Note: we need to use `encodePacked` here instead of `encode`.\r\n        return ecrecover(digest, v, r, s) == signer;\r\n    }\r\n\r\n    /// Add a temporary address to the account\r\n    function UpdateTemporary(address temporary, string memory ID, uint8 sigV, bytes32 sigR, bytes32 sigS) public {\r\n        /* require(sigR.length == threshold); */\r\n        /* require(sigR.length == sigS.length && sigR.length == sigV.length); */\r\n\r\n        require(temporaryAddresses[temporary] == 0, \"Address is used as a temporary account\");\r\n        require(primaryAddresses[temporary] == 0, \"Address is used as a primary account\");\r\n        require(bytes(ID).length <= 254, \"ID length must not exceed 254 characters\");\r\n\r\n        bytes32 digest = getTemporaryHash(temporary, ID);\r\n        emit logBytes32(digest);\r\n\r\n        /* assert(verify(digest, temporary, sigV[0], sigR[0], sigS[0])); */\r\n\r\n        // if id exists,\r\n        // remove the temporary account\r\n        // update the user's temporary account\r\n        /* uint userNumber = ids[ID];\r\n        if (userNumber > 0) {\r\n            User storage user = users[userNumber];\r\n\r\n            address oldTemporary = user.temporary;\r\n            if (temporaryAddresses[oldTemporary] > 0) {\r\n                delete temporaryAddresses[oldTemporary];\r\n            }\r\n\r\n            user.temporary = temporary;\r\n        }\r\n        else {\r\n            number = number + 1;\r\n            userNumber = number;\r\n\r\n            users[userNumber] = User(temporary, address(0), ID);\r\n        }\r\n\r\n        // register the temporary account\r\n        temporaryAddresses[temporary] = userNumber; */\r\n    }\r\n\r\n    event logString(string str);\r\n    event logBytes32(bytes32 bts);\r\n    event logBytes(bytes bts);\r\n\r\n    function LogTemporaryHash(address temporary, string memory ID) public returns (bytes32) {\r\n        bytes memory encoded = abi.encodePacked(\r\n            \"\\x19\\x01\",\r\n            DOMAIN_SEPARATOR_PRIMARY,\r\n            getTemporaryHash(temporary, ID)\r\n        );\r\n\r\n        bytes32 digest = keccak256(encoded);\r\n\r\n        emit logBytes(encoded);\r\n\r\n        return digest;\r\n    }\r\n\r\n\r\n    function stringToBytes(string memory ID) public pure returns (bytes memory) {\r\n        bytes memory id = bytes(ID);\r\n\r\n        return id;\r\n    }\r\n\r\n\r\n\r\n    // Add a primary wallet address (account) of a user.\r\n    // This operation is valid once only. After adding primary address, player can not change it later\r\n    // So in future version we could change that\r\n    //\r\n    // requirements to update the primary address is to have an temporary address with ID\r\n    function UpdatePrimary(address temporary, address primary, uint8[] memory sigV, bytes32[] memory sigR, bytes32[] memory sigS) public {\r\n        require(temporaryAddresses[temporary] > 0, \"Temporary address not exists\");\r\n        require(temporaryAddresses[primary] == 0, \"Address is already used as a temporary account\");\r\n        require(primaryAddresses[primary] == 0, \"Address is already used as a primary account\");\r\n\r\n        require(sigR.length == threshold);\r\n        require(sigR.length == sigS.length && sigR.length == sigV.length);\r\n\r\n        // if id exists,\r\n        // remove the temporary account\r\n        // update the user's temporary account\r\n        uint userNumber = temporaryAddresses[temporary];\r\n        require(users[userNumber].primary == address(0), \"Primary address exists for the user already\");\r\n\r\n        bytes32 digest = keccak256(abi.encodePacked(\r\n            \"\\x19\\x01\",\r\n            DOMAIN_SEPARATOR_PRIMARY,\r\n            getPrimaryHash(temporary, primary)\r\n        ));\r\n\r\n        assert(verify(digest, temporary, sigV[0], sigR[0], sigS[0]));\r\n        assert(verify(digest, gameOwner, sigV[1], sigR[1], sigS[1]));\r\n\r\n        users[userNumber].primary = primary;\r\n\r\n        // register the primary account\r\n        primaryAddresses[primary] = userNumber;\r\n    }\r\n\r\n\r\n    // Can update the ID if primary address is added.\r\n    // Only primary address hold can invoke the function\r\n    function UpdateID(string memory id_) public {\r\n        require(primaryAddresses[msg.sender] > 0, \"Primary address not found. Required to be set the primary address\");\r\n        require(ids[id_] == 0, \"ID is used already\");\r\n        require(bytes(id_).length <= 254, \"ID length must not exceed 254 characters\");\r\n\r\n        uint userNumber = primaryAddresses[msg.sender];\r\n\r\n        // remove the previous id\r\n        delete ids[users[userNumber].ID];\r\n\r\n        users[userNumber].ID = id_;\r\n    }\r\n\r\n    /// Returns User.ID by temporary or primary account used by the player\r\n    function GetID(address account) public view returns(string memory) {\r\n        uint userNumber = primaryAddresses[account];\r\n        if (userNumber == 0) {\r\n            userNumber = temporaryAddresses[account];\r\n\r\n            if (userNumber == 0) {\r\n                return \"\";\r\n            }\r\n        }\r\n\r\n        return users[userNumber].ID;\r\n    }\r\n\r\n    function GetTemporary(string memory id_) public view returns (address) {\r\n        uint userNumber = ids[id_];\r\n        if (userNumber == 0) {\r\n            return address(0);\r\n        }\r\n        return users[userNumber].temporary;\r\n    }\r\n\r\n    function GetPrimary(string memory id_) public view returns (address) {\r\n        uint userNumber = ids[id_];\r\n        if (userNumber == 0) {\r\n            return address(0);\r\n        }\r\n        return users[userNumber].primary;\r\n    }\r\n}\r\n",
  "sourcePath": "/mnt/c/repos/blocklords-loom-contracts/contracts/Walletless.sol",
  "compiler": {
    "name": "solc",
    "version": "0.5.8+commit.23d335f2.Emscripten.clang"
  },
  "schemaVersion": "3.0.15",
  "updatedAt": "2020-02-05T22:28:07.291Z",
  "devdoc": {
    "methods": {}
  },
  "userdoc": {
    "methods": {
      "GetID(address)": {
        "notice": "Returns User.ID by temporary or primary account used by the player"
      },
      "UpdateTemporary(address,string,uint8,bytes32,bytes32)": {
        "notice": "Add a temporary address to the account"
      }
    }
  }
}