{
  "contractName": "Walletless",
  "abi": [
    {
      "constant": true,
      "inputs": [
        {
          "name": "",
          "type": "address"
        }
      ],
      "name": "primaryAddresses",
      "outputs": [
        {
          "name": "",
          "type": "uint256"
        }
      ],
      "payable": false,
      "stateMutability": "view",
      "type": "function"
    },
    {
      "constant": true,
      "inputs": [
        {
          "name": "",
          "type": "uint256"
        }
      ],
      "name": "users",
      "outputs": [
        {
          "name": "primary",
          "type": "address"
        },
        {
          "name": "temporary",
          "type": "address"
        },
        {
          "name": "ID",
          "type": "string"
        }
      ],
      "payable": false,
      "stateMutability": "view",
      "type": "function"
    },
    {
      "constant": true,
      "inputs": [
        {
          "name": "",
          "type": "address"
        }
      ],
      "name": "temporaryAddresses",
      "outputs": [
        {
          "name": "",
          "type": "uint256"
        }
      ],
      "payable": false,
      "stateMutability": "view",
      "type": "function"
    },
    {
      "constant": true,
      "inputs": [],
      "name": "threshold",
      "outputs": [
        {
          "name": "",
          "type": "uint256"
        }
      ],
      "payable": false,
      "stateMutability": "view",
      "type": "function"
    },
    {
      "constant": true,
      "inputs": [],
      "name": "nonce",
      "outputs": [
        {
          "name": "",
          "type": "uint256"
        }
      ],
      "payable": false,
      "stateMutability": "view",
      "type": "function"
    },
    {
      "inputs": [
        {
          "name": "chainId",
          "type": "uint256"
        }
      ],
      "payable": false,
      "stateMutability": "nonpayable",
      "type": "constructor"
    },
    {
      "constant": false,
      "inputs": [
        {
          "name": "account",
          "type": "address"
        },
        {
          "name": "id",
          "type": "string"
        },
        {
          "name": "sigV",
          "type": "uint8[]"
        },
        {
          "name": "sigR",
          "type": "bytes32[]"
        },
        {
          "name": "sigS",
          "type": "bytes32[]"
        }
      ],
      "name": "UpdateTemporary",
      "outputs": [],
      "payable": false,
      "stateMutability": "nonpayable",
      "type": "function"
    },
    {
      "constant": false,
      "inputs": [
        {
          "name": "executor_",
          "type": "address"
        },
        {
          "name": "primary_",
          "type": "address"
        },
        {
          "name": "sigV",
          "type": "uint8[]"
        },
        {
          "name": "sigR",
          "type": "bytes32[]"
        },
        {
          "name": "sigS",
          "type": "bytes32[]"
        }
      ],
      "name": "UpdatePrimary",
      "outputs": [],
      "payable": false,
      "stateMutability": "nonpayable",
      "type": "function"
    },
    {
      "constant": false,
      "inputs": [
        {
          "name": "id_",
          "type": "string"
        }
      ],
      "name": "UpdateID",
      "outputs": [],
      "payable": false,
      "stateMutability": "nonpayable",
      "type": "function"
    },
    {
      "constant": true,
      "inputs": [
        {
          "name": "account",
          "type": "address"
        }
      ],
      "name": "GetID",
      "outputs": [
        {
          "name": "",
          "type": "string"
        }
      ],
      "payable": false,
      "stateMutability": "view",
      "type": "function"
    },
    {
      "constant": true,
      "inputs": [
        {
          "name": "id_",
          "type": "string"
        }
      ],
      "name": "GetTemporary",
      "outputs": [
        {
          "name": "",
          "type": "address"
        }
      ],
      "payable": false,
      "stateMutability": "view",
      "type": "function"
    },
    {
      "constant": true,
      "inputs": [
        {
          "name": "id_",
          "type": "string"
        }
      ],
      "name": "GetPrimary",
      "outputs": [
        {
          "name": "",
          "type": "address"
        }
      ],
      "payable": false,
      "stateMutability": "view",
      "type": "function"
    }
  ],
  "bytecode": "0x608060405233600160006101000a81548173ffffffffffffffffffffffffffffffffffffffff021916908373ffffffffffffffffffffffffffffffffffffffff16021790555034801561005157600080fd5b50604051602080612bd88339810180604052602081101561007157600080fd5b81019080805190602001909291905050506002600381905550600080819055507fd87cd6ef79d4e2b95e15ce8abf732db51ec771f1ca2edccf22a46c729ac5647260001b7fb09ecc80b914533a87b3030e2f4a181b6d84f8bd6302c1461fc359411592a77460001b7fc89efdaa54c0f20c7adf612882df0950f5a951637e0307cdcb4c672f298b8bc660001b83307ffbbbedd42a3ca2dc0ec761a1d7ca7eaea72b97aa3f7c46c3a7cd20be0ae6c8dc60001b604051602001808781526020018681526020018581526020018481526020018373ffffffffffffffffffffffffffffffffffffffff1673ffffffffffffffffffffffffffffffffffffffff1681526020018281526020019650505050505050604051602081830303815290604052805190602001206008819055507fd87cd6ef79d4e2b95e15ce8abf732db51ec771f1ca2edccf22a46c729ac5647260001b7f01d766ba82427b4e83818bd3a2047efa2184e836a10a9c6dbf489a6b2c81949f60001b7fc89efdaa54c0f20c7adf612882df0950f5a951637e0307cdcb4c672f298b8bc660001b83307ffbbbedd42a3ca2dc0ec761a1d7ca7eaea72b97aa3f7c46c3a7cd20be0ae6c8dc60001b604051602001808781526020018681526020018581526020018481526020018373ffffffffffffffffffffffffffffffffffffffff1673ffffffffffffffffffffffffffffffffffffffff1681526020018281526020019650505050505050604051602081830303815290604052805190602001206008819055505061291d806102bb6000396000f3fe608060405234801561001057600080fd5b50600436106100a95760003560e01c806342cde4e81161007157806342cde4e8146104615780639d06629a1461047f5780639d904fd814610716578063affed0e0146107d1578063bcae2216146107ef578063f5e889aa14610a0f576100a9565b8063080f897e146100ae5780631765e877146101a957806318785a4a14610201578063365b98b2146102fc5780634189a0c814610409575b600080fd5b610167600480360360208110156100c457600080fd5b81019080803590602001906401000000008111156100e157600080fd5b8201836020820111156100f357600080fd5b8035906020019184600183028401116401000000008311171561011557600080fd5b91908080601f016020809104026020016040519081016040528093929190818152602001838380828437600081840152601f19601f820116905080830192505050505050509192919290505050610acc565b604051808273ffffffffffffffffffffffffffffffffffffffff1673ffffffffffffffffffffffffffffffffffffffff16815260200191505060405180910390f35b6101eb600480360360208110156101bf57600080fd5b81019080803573ffffffffffffffffffffffffffffffffffffffff169060200190929190505050610b8e565b6040518082815260200191505060405180910390f35b6102ba6004803603602081101561021757600080fd5b810190808035906020019064010000000081111561023457600080fd5b82018360208201111561024657600080fd5b8035906020019184600183028401116401000000008311171561026857600080fd5b91908080601f016020809104026020016040519081016040528093929190818152602001838380828437600081840152601f19601f820116905080830192505050505050509192919290505050610ba6565b604051808273ffffffffffffffffffffffffffffffffffffffff1673ffffffffffffffffffffffffffffffffffffffff16815260200191505060405180910390f35b6103286004803603602081101561031257600080fd5b8101908080359060200190929190505050610c68565b604051808473ffffffffffffffffffffffffffffffffffffffff1673ffffffffffffffffffffffffffffffffffffffff1681526020018373ffffffffffffffffffffffffffffffffffffffff1673ffffffffffffffffffffffffffffffffffffffff16815260200180602001828103825283818151815260200191508051906020019080838360005b838110156103cc5780820151818401526020810190506103b1565b50505050905090810190601f1680156103f95780820380516001836020036101000a031916815260200191505b5094505050505060405180910390f35b61044b6004803603602081101561041f57600080fd5b81019080803573ffffffffffffffffffffffffffffffffffffffff169060200190929190505050610d6a565b6040518082815260200191505060405180910390f35b610469610d82565b6040518082815260200191505060405180910390f35b610714600480360360a081101561049557600080fd5b81019080803573ffffffffffffffffffffffffffffffffffffffff169060200190929190803590602001906401000000008111156104d257600080fd5b8201836020820111156104e457600080fd5b8035906020019184600183028401116401000000008311171561050657600080fd5b91908080601f016020809104026020016040519081016040528093929190818152602001838380828437600081840152601f19601f8201169050808301925050505050505091929192908035906020019064010000000081111561056957600080fd5b82018360208201111561057b57600080fd5b8035906020019184602083028401116401000000008311171561059d57600080fd5b919080806020026020016040519081016040528093929190818152602001838360200280828437600081840152601f19601f820116905080830192505050505050509192919290803590602001906401000000008111156105fd57600080fd5b82018360208201111561060f57600080fd5b8035906020019184602083028401116401000000008311171561063157600080fd5b919080806020026020016040519081016040528093929190818152602001838360200280828437600081840152601f19601f8201169050808301925050505050505091929192908035906020019064010000000081111561069157600080fd5b8201836020820111156106a357600080fd5b803590602001918460208302840111640100000000831117156106c557600080fd5b919080806020026020016040519081016040528093929190818152602001838360200280828437600081840152601f19601f820116905080830192505050505050509192919290505050610d88565b005b6107cf6004803603602081101561072c57600080fd5b810190808035906020019064010000000081111561074957600080fd5b82018360208201111561075b57600080fd5b8035906020019184600183028401116401000000008311171561077d57600080fd5b91908080601f016020809104026020016040519081016040528093929190818152602001838380828437600081840152601f19601f8201169050808301925050505050505091929192905050506117b2565b005b6107d9611a9e565b6040518082815260200191505060405180910390f35b610a0d600480360360a081101561080557600080fd5b81019080803573ffffffffffffffffffffffffffffffffffffffff169060200190929190803573ffffffffffffffffffffffffffffffffffffffff1690602001909291908035906020019064010000000081111561086257600080fd5b82018360208201111561087457600080fd5b8035906020019184602083028401116401000000008311171561089657600080fd5b919080806020026020016040519081016040528093929190818152602001838360200280828437600081840152601f19601f820116905080830192505050505050509192919290803590602001906401000000008111156108f657600080fd5b82018360208201111561090857600080fd5b8035906020019184602083028401116401000000008311171561092a57600080fd5b919080806020026020016040519081016040528093929190818152602001838360200280828437600081840152601f19601f8201169050808301925050505050505091929192908035906020019064010000000081111561098a57600080fd5b82018360208201111561099c57600080fd5b803590602001918460208302840111640100000000831117156109be57600080fd5b919080806020026020016040519081016040528093929190818152602001838360200280828437600081840152601f19601f820116905080830192505050505050509192919290505050611aa4565b005b610a5160048036036020811015610a2557600080fd5b81019080803573ffffffffffffffffffffffffffffffffffffffff1690602001909291905050506124fb565b6040518080602001828103825283818151815260200191508051906020019080838360005b83811015610a91578082015181840152602081019050610a76565b50505050905090810190601f168015610abe5780820380516001836020036101000a031916815260200191505b509250505060405180910390f35b6000806006836040518082805190602001908083835b60208310610b055780518252602082019150602081019050602083039250610ae2565b6001836020036101000a03801982511681845116808217855250505050505090500191505090815260200160405180910390205490506000811415610b4e576000915050610b89565b6007600082815260200190815260200160002060010160009054906101000a900473ffffffffffffffffffffffffffffffffffffffff169150505b919050565b60056020528060005260406000206000915090505481565b6000806006836040518082805190602001908083835b60208310610bdf5780518252602082019150602081019050602083039250610bbc565b6001836020036101000a03801982511681845116808217855250505050505090500191505090815260200160405180910390205490506000811415610c28576000915050610c63565b6007600082815260200190815260200160002060000160009054906101000a900473ffffffffffffffffffffffffffffffffffffffff169150505b919050565b60076020528060005260406000206000915090508060000160009054906101000a900473ffffffffffffffffffffffffffffffffffffffff16908060010160009054906101000a900473ffffffffffffffffffffffffffffffffffffffff1690806002018054600181600116156101000203166002900480601f016020809104026020016040519081016040528092919081815260200182805460018160011615610100020316600290048015610d605780601f10610d3557610100808354040283529160200191610d60565b820191906000526020600020905b815481529060010190602001808311610d4357829003601f168201915b5050505050905083565b60046020528060005260406000206000915090505481565b60035481565b600354825114610d9757600080fd5b80518251148015610da9575082518251145b610db257600080fd5b600160009054906101000a900473ffffffffffffffffffffffffffffffffffffffff1673ffffffffffffffffffffffffffffffffffffffff168573ffffffffffffffffffffffffffffffffffffffff161415610e59576040517f08c379a000000000000000000000000000000000000000000000000000000000815260040180806020018281038252602981526020018061278c6029913960400191505060405180910390fd5b6000600460008773ffffffffffffffffffffffffffffffffffffffff1673ffffffffffffffffffffffffffffffffffffffff1681526020019081526020016000205414610ef1576040517f08c379a00000000000000000000000000000000000000000000000000000000081526004018080602001828103825260268152602001806128586026913960400191505060405180910390fd5b6000600560008773ffffffffffffffffffffffffffffffffffffffff1673ffffffffffffffffffffffffffffffffffffffff1681526020019081526020016000205414610f89576040517f08c379a00000000000000000000000000000000000000000000000000000000081526004018080602001828103825260248152602001806128a16024913960400191505060405180910390fd5b60fe84511115610fe4576040517f08c379a00000000000000000000000000000000000000000000000000000000081526004018080602001828103825260288152602001806127b56028913960400191505060405180910390fd5b3373ffffffffffffffffffffffffffffffffffffffff168573ffffffffffffffffffffffffffffffffffffffff16148061106b57503373ffffffffffffffffffffffffffffffffffffffff16600160009054906101000a900473ffffffffffffffffffffffffffffffffffffffff1673ffffffffffffffffffffffffffffffffffffffff16145b6110dd576040517f08c379a00000000000000000000000000000000000000000000000000000000081526004018080602001828103825260118152602001807f5065726d697373696f6e2064656e69656400000000000000000000000000000081525060200191505060405180910390fd5b60007f626fa3909ffec8617c25e36eb89d32ac3e7acd5bf7238d2c5f269cceed4f2ed160001b8686600254604051602001808581526020018473ffffffffffffffffffffffffffffffffffffffff1673ffffffffffffffffffffffffffffffffffffffff16815260200180602001838152602001828103825284818151815260200191508051906020019080838360005b8381101561118957808201518184015260208101905061116e565b50505050905090810190601f1680156111b65780820380516001836020036101000a031916815260200191505b509550505050505060405160208183030381529060405280519060200120905060006008548260405160200180807f19010000000000000000000000000000000000000000000000000000000000008152506002018381526020018281526020019250505060405160208183030381529060405280519060200120905060006001828760008151811061124557fe5b60200260200101518760008151811061125a57fe5b60200260200101518760008151811061126f57fe5b602002602001015160405160008152602001604052604051808581526020018460ff1660ff1681526020018381526020018281526020019450505050506020604051602081039080840390855afa1580156112ce573d6000803e3d6000fd5b5050506020604051035190508773ffffffffffffffffffffffffffffffffffffffff168173ffffffffffffffffffffffffffffffffffffffff161461135e576040517f08c379a000000000000000000000000000000000000000000000000000000000815260040180806020018281038252602d8152602001806128c5602d913960400191505060405180910390fd5b60006001838860018151811061137057fe5b60200260200101518860018151811061138557fe5b60200260200101518860018151811061139a57fe5b602002602001015160405160008152602001604052604051808581526020018460ff1660ff1681526020018381526020018281526020019450505050506020604051602081039080840390855afa1580156113f9573d6000803e3d6000fd5b505050602060405103519050600160009054906101000a900473ffffffffffffffffffffffffffffffffffffffff1673ffffffffffffffffffffffffffffffffffffffff168173ffffffffffffffffffffffffffffffffffffffff16146114ab576040517f08c379a00000000000000000000000000000000000000000000000000000000081526004018080602001828103825260218152602001806128376021913960400191505060405180910390fd5b60006006896040518082805190602001908083835b602083106114e357805182526020820191506020810190506020830392506114c0565b6001836020036101000a0380198251168184511680821785525050505050509050019150509081526020016040518091039020549050600081111561163857600060076000838152602001908152602001600020905060008160010160009054906101000a900473ffffffffffffffffffffffffffffffffffffffff1690506000600460008373ffffffffffffffffffffffffffffffffffffffff1673ffffffffffffffffffffffffffffffffffffffff1681526020019081526020016000205411156115ee57600460008273ffffffffffffffffffffffffffffffffffffffff1673ffffffffffffffffffffffffffffffffffffffff168152602001908152602001600020600090555b8b8260010160006101000a81548173ffffffffffffffffffffffffffffffffffffffff021916908373ffffffffffffffffffffffffffffffffffffffff1602179055505050611754565b600160005401600081905550600054905060405180606001604052808b73ffffffffffffffffffffffffffffffffffffffff168152602001600073ffffffffffffffffffffffffffffffffffffffff1681526020018a815250600760008054815260200190815260200160002060008201518160000160006101000a81548173ffffffffffffffffffffffffffffffffffffffff021916908373ffffffffffffffffffffffffffffffffffffffff16021790555060208201518160010160006101000a81548173ffffffffffffffffffffffffffffffffffffffff021916908373ffffffffffffffffffffffffffffffffffffffff160217905550604082015181600201908051906020019061174f929190612666565b509050505b600054600460008c73ffffffffffffffffffffffffffffffffffffffff1673ffffffffffffffffffffffffffffffffffffffff1681526020019081526020016000208190555060016002540160028190555050505050505050505050565b6000600560003373ffffffffffffffffffffffffffffffffffffffff1673ffffffffffffffffffffffffffffffffffffffff1681526020019081526020016000205411611867576040517f08c379a00000000000000000000000000000000000000000000000000000000081526004018080602001828103825260148152602001807f506c6179657220646f206e6f742065786973747300000000000000000000000081525060200191505060405180910390fd5b60006006826040518082805190602001908083835b6020831061189f578051825260208201915060208101905060208303925061187c565b6001836020036101000a03801982511681845116808217855250505050505090500191505090815260200160405180910390205414611946576040517f08c379a000000000000000000000000000000000000000000000000000000000815260040180806020018281038252601f8152602001807f494420697320616c7265616479207573656420627920736f6d6520557365720081525060200191505060405180910390fd5b60fe815111156119a1576040517f08c379a00000000000000000000000000000000000000000000000000000000081526004018080602001828103825260288152602001806127b56028913960400191505060405180910390fd5b6000600560003373ffffffffffffffffffffffffffffffffffffffff1673ffffffffffffffffffffffffffffffffffffffff1681526020019081526020016000205490506006600760008381526020019081526020016000206002016040518082805460018160011615610100020316600290048015611a585780601f10611a36576101008083540402835291820191611a58565b820191906000526020600020905b815481529060010190602001808311611a44575b505091505090815260200160405180910390206000905581600760008381526020019081526020016000206002019080519060200190611a999291906126e6565b505050565b60025481565b6000600460008773ffffffffffffffffffffffffffffffffffffffff1673ffffffffffffffffffffffffffffffffffffffff1681526020019081526020016000205411611b59576040517f08c379a000000000000000000000000000000000000000000000000000000000815260040180806020018281038252601c8152602001807f54656d706f726172792061646472657373206e6f74206578697374730000000081525060200191505060405180910390fd5b6000600460008673ffffffffffffffffffffffffffffffffffffffff1673ffffffffffffffffffffffffffffffffffffffff1681526020019081526020016000205414611bf1576040517f08c379a000000000000000000000000000000000000000000000000000000000815260040180806020018281038252602e815260200180612809602e913960400191505060405180910390fd5b6000600560008673ffffffffffffffffffffffffffffffffffffffff1673ffffffffffffffffffffffffffffffffffffffff1681526020019081526020016000205414611c89576040517f08c379a000000000000000000000000000000000000000000000000000000000815260040180806020018281038252602c8152602001806127dd602c913960400191505060405180910390fd5b600354825114611c9857600080fd5b80518251148015611caa575082518251145b611cb357600080fd5b600160009054906101000a900473ffffffffffffffffffffffffffffffffffffffff1673ffffffffffffffffffffffffffffffffffffffff168573ffffffffffffffffffffffffffffffffffffffff161415611d5a576040517f08c379a000000000000000000000000000000000000000000000000000000000815260040180806020018281038252602981526020018061278c6029913960400191505060405180910390fd5b600160009054906101000a900473ffffffffffffffffffffffffffffffffffffffff1673ffffffffffffffffffffffffffffffffffffffff168473ffffffffffffffffffffffffffffffffffffffff161415611e1e576040517f08c379a000000000000000000000000000000000000000000000000000000000815260040180806020018281038252601e8152602001807f47616d65204f776e65722063616e2774206a6f696e207468652067616d65000081525060200191505060405180910390fd5b3373ffffffffffffffffffffffffffffffffffffffff168573ffffffffffffffffffffffffffffffffffffffff161480611ea557503373ffffffffffffffffffffffffffffffffffffffff16600160009054906101000a900473ffffffffffffffffffffffffffffffffffffffff1673ffffffffffffffffffffffffffffffffffffffff16145b611f17576040517f08c379a00000000000000000000000000000000000000000000000000000000081526004018080602001828103825260118152602001807f5065726d697373696f6e2064656e69656400000000000000000000000000000081525060200191505060405180910390fd5b6000600460008773ffffffffffffffffffffffffffffffffffffffff1673ffffffffffffffffffffffffffffffffffffffff168152602001908152602001600020549050600073ffffffffffffffffffffffffffffffffffffffff166007600083815260200190815260200160002060000160009054906101000a900473ffffffffffffffffffffffffffffffffffffffff1673ffffffffffffffffffffffffffffffffffffffff1614612016576040517f08c379a000000000000000000000000000000000000000000000000000000000815260040180806020018281038252602381526020018061287e6023913960400191505060405180910390fd5b60007f4752ecfe97551d5427f851c2a20e8a798903d642e73f36cb34ecc076eb43470c60001b878760076000868152602001908152602001600020600201600254604051602001808681526020018573ffffffffffffffffffffffffffffffffffffffff1673ffffffffffffffffffffffffffffffffffffffff1681526020018473ffffffffffffffffffffffffffffffffffffffff1673ffffffffffffffffffffffffffffffffffffffff168152602001806020018381526020018281038252848181546001816001161561010002031660029004815260200191508054600181600116156101000203166002900480156121535780601f1061212857610100808354040283529160200191612153565b820191906000526020600020905b81548152906001019060200180831161213657829003601f168201915b5050965050505050505060405160208183030381529060405280519060200120905060006009548260405160200180807f1901000000000000000000000000000000000000000000000000000000000000815250600201838152602001828152602001925050506040516020818303038152906040528051906020012090506000600182886000815181106121e457fe5b6020026020010151886000815181106121f957fe5b60200260200101518860008151811061220e57fe5b602002602001015160405160008152602001604052604051808581526020018460ff1660ff1681526020018381526020018281526020019450505050506020604051602081039080840390855afa15801561226d573d6000803e3d6000fd5b5050506020604051035190508873ffffffffffffffffffffffffffffffffffffffff168173ffffffffffffffffffffffffffffffffffffffff16146122fd576040517f08c379a000000000000000000000000000000000000000000000000000000000815260040180806020018281038252602d8152602001806128c5602d913960400191505060405180910390fd5b60006001838960018151811061230f57fe5b60200260200101518960018151811061232457fe5b60200260200101518960018151811061233957fe5b602002602001015160405160008152602001604052604051808581526020018460ff1660ff1681526020018381526020018281526020019450505050506020604051602081039080840390855afa158015612398573d6000803e3d6000fd5b505050602060405103519050600160009054906101000a900473ffffffffffffffffffffffffffffffffffffffff1673ffffffffffffffffffffffffffffffffffffffff168173ffffffffffffffffffffffffffffffffffffffff161461244a576040517f08c379a00000000000000000000000000000000000000000000000000000000081526004018080602001828103825260218152602001806128376021913960400191505060405180910390fd5b886007600087815260200190815260200160002060000160006101000a81548173ffffffffffffffffffffffffffffffffffffffff021916908373ffffffffffffffffffffffffffffffffffffffff16021790555084600560008b73ffffffffffffffffffffffffffffffffffffffff1673ffffffffffffffffffffffffffffffffffffffff1681526020019081526020016000208190555060016002540160028190555050505050505050505050565b60606000600560008473ffffffffffffffffffffffffffffffffffffffff1673ffffffffffffffffffffffffffffffffffffffff16815260200190815260200160002054905060008114156125ae57600460008473ffffffffffffffffffffffffffffffffffffffff1673ffffffffffffffffffffffffffffffffffffffff16815260200190815260200160002054905060008114156125ad5760405180602001604052806000815250915050612661565b5b600760008281526020019081526020016000206002018054600181600116156101000203166002900480601f0160208091040260200160405190810160405280929190818152602001828054600181600116156101000203166002900480156126585780601f1061262d57610100808354040283529160200191612658565b820191906000526020600020905b81548152906001019060200180831161263b57829003601f168201915b50505050509150505b919050565b828054600181600116156101000203166002900490600052602060002090601f016020900481019282601f106126a757805160ff19168380011785556126d5565b828001600101855582156126d5579182015b828111156126d45782518255916020019190600101906126b9565b5b5090506126e29190612766565b5090565b828054600181600116156101000203166002900490600052602060002090601f016020900481019282601f1061272757805160ff1916838001178555612755565b82800160010185558215612755579182015b82811115612754578251825591602001919060010190612739565b5b5090506127629190612766565b5090565b61278891905b8082111561278457600081600090555060010161276c565b5090565b9056fe47616d65204f776e65722063616e2774207570646174652074656d706f72617279206163636f756e744944206c656e677468206d757374206e6f74206578636565642032353420636861726163746572734164647265737320697320616c726561647920757365642061732061207072696d617279206163636f756e744164647265737320697320616c7265616479207573656420617320612074656d706f72617279206163636f756e745365636f6e64207369676e6572206973206e6f7420612067616d65206f776e657241646472657373206973207573656420617320612074656d706f72617279206163636f756e745072696d61727920616464726573732065786973747320666f722074686520757365724164647265737320697320757365642061732061207072696d617279206163636f756e744669727374207369676e6572206973206e6f7420612074656d706f72617279206163636f756e74206f776e6572a165627a7a723058200053b8a0d168962be07c31194478f8f758a749a938035731bb6d5381b1a462970029",
  "source": "pragma solidity ^0.5.8;\r\n\r\ncontract Walletless {\r\n\r\n    uint number;            // registered users number\r\n\r\n    struct User {\r\n        address primary;\r\n        address temporary;\r\n        string ID;\r\n    }\r\n\r\n    address gameOwner = msg.sender;\r\n\r\n    uint public nonce;                          // mutable state\r\n    uint public threshold;                      // immutable state\r\n    mapping (address => uint) public temporaryAddresses; // mutable state\r\n    mapping (address => uint) public primaryAddresses; // mutable state\r\n    mapping (string => uint) ids;           // Email to User ID\r\n    mapping (uint => User) public users;               // User ID to User data\r\n\r\n    // EIP712 Precomputed hashes:\r\n    // keccak256(\"EIP712Domain(string name,string version,uint256 chainId,address verifyingContract,bytes32 salt)\")\r\n    bytes32 constant EIP712DOMAINTYPE_HASH = 0xd87cd6ef79d4e2b95e15ce8abf732db51ec771f1ca2edccf22a46c729ac56472;\r\n\r\n    // keccak256(\"Register temporary account\")\r\n    bytes32 constant NAME_HASH_TEMPORARY = 0xb09ecc80b914533a87b3030e2f4a181b6d84f8bd6302c1461fc359411592a774;\r\n\r\n    // keccak256(\"1\")\r\n    bytes32 constant VERSION_HASH_TEMPORARY = 0xc89efdaa54c0f20c7adf612882df0950f5a951637e0307cdcb4c672f298b8bc6;\r\n\r\n    // keccak256(\"UpdateTemporary(address account,string memory id,uint256 nonce)\")\r\n    bytes32 constant TXTYPE_HASH_TEMPORARY = 0x626fa3909ffec8617c25e36eb89d32ac3e7acd5bf7238d2c5f269cceed4f2ed1;\r\n\r\n    bytes32 DOMAIN_SEPARATOR_TEMPORARY;          // hash for EIP712, computed from contract address\r\n\r\n\r\n    // keccak256(\"Register primary account\")\r\n    bytes32 constant NAME_HASH_PRIMARY = 0x01d766ba82427b4e83818bd3a2047efa2184e836a10a9c6dbf489a6b2c81949f;\r\n\r\n    // keccak256(\"1\")\r\n    bytes32 constant VERSION_HASH_PRIMARY = 0xc89efdaa54c0f20c7adf612882df0950f5a951637e0307cdcb4c672f298b8bc6;\r\n\r\n    // keccak256(\"UpdatePrimary(address temporary,address primary,string memory id,uint256 nonce)\")\r\n    bytes32 constant TXTYPE_HASH_PRIMARY = 0x4752ecfe97551d5427f851c2a20e8a798903d642e73f36cb34ecc076eb43470c;\r\n\r\n    bytes32 DOMAIN_SEPARATOR_PRIMARY;          // hash for EIP712, computed from contract address\r\n\r\n\r\n    // keccak256(\"by Medet Ahmetson\")\r\n    bytes32 constant SALT = 0xfbbbedd42a3ca2dc0ec761a1d7ca7eaea72b97aa3f7c46c3a7cd20be0ae6c8dc;\r\n\r\n\r\n    // Note that owners_ must be strictly increasing, in order to prevent duplicates\r\n    constructor(uint chainId) public {\r\n        threshold = 2;\r\n        number = 0;\r\n\r\n        DOMAIN_SEPARATOR_TEMPORARY = keccak256(abi.encode(EIP712DOMAINTYPE_HASH,\r\n                                                NAME_HASH_TEMPORARY,\r\n                                                VERSION_HASH_TEMPORARY,\r\n                                                chainId,\r\n                                                this,\r\n                                                SALT));\r\n\r\n        DOMAIN_SEPARATOR_TEMPORARY = keccak256(abi.encode(EIP712DOMAINTYPE_HASH,\r\n                                                NAME_HASH_PRIMARY,\r\n                                                VERSION_HASH_PRIMARY,\r\n                                                chainId,\r\n                                                this,\r\n                                                SALT));\r\n    }\r\n\r\n\r\n    /// Add a temporary address to the account\r\n    function UpdateTemporary(address account, string memory id, uint8[] memory sigV, bytes32[] memory sigR, bytes32[] memory sigS) public {\r\n        require(sigR.length == threshold);\r\n        require(sigR.length == sigS.length && sigR.length == sigV.length);\r\n        require(account != gameOwner, \"Game Owner can't update temporary account\");\r\n        require(temporaryAddresses[account] == 0, \"Address is used as a temporary account\");\r\n        require(primaryAddresses[account] == 0, \"Address is used as a primary account\");\r\n        require(bytes(id).length <= 254, \"ID length must not exceed 254 characters\");\r\n\r\n        // Method should be called by one of the Multisig accounts\r\n        require (account == msg.sender || gameOwner == msg.sender, \"Permission denied\");\r\n\r\n\r\n        // EIP712 scheme: https://github.com/ethereum/EIPs/blob/master/EIPS/eip-712.md\r\n        bytes32 txInputHash = keccak256(abi.encode(TXTYPE_HASH_TEMPORARY, account, id, nonce));\r\n        bytes32 totalHash = keccak256(abi.encodePacked(\"\\x19\\x01\", DOMAIN_SEPARATOR_TEMPORARY, txInputHash));\r\n\r\n        // First signer is a temporary account\r\n        address recovered_0 = ecrecover(totalHash, sigV[0], sigR[0], sigS[0]);\r\n        require(recovered_0 == account, \"First signer is not a temporary account owner\");\r\n        // Second signer is Game owner\r\n        address recovered_1 = ecrecover(totalHash, sigV[1], sigR[1], sigS[1]);\r\n        require(recovered_1 == gameOwner, \"Second signer is not a game owner\");\r\n\r\n\r\n        // if id exists,\r\n        // remove the temporary account\r\n        // update the user's temporary account\r\n        uint userNumber = ids[id];\r\n        if (userNumber > 0) {\r\n            User storage user = users[userNumber];\r\n\r\n            address oldTemporary = user.temporary;\r\n            if (temporaryAddresses[oldTemporary] > 0) {\r\n                delete temporaryAddresses[oldTemporary];\r\n            }\r\n\r\n            user.temporary = account;\r\n        }\r\n        else {\r\n            number = number + 1;\r\n            userNumber = number;\r\n\r\n            users[number] = User(account, address(0), id);\r\n        }\r\n\r\n        // register the temporary account\r\n        temporaryAddresses[account] = number;\r\n\r\n        // If we make it here all signatures are accounted for.\r\n        // The address.call() syntax is no longer recommended, see:\r\n        // https://github.com/ethereum/solidity/issues/2884\r\n        nonce = nonce + 1;\r\n    }\r\n\r\n\r\n    // Add a primary wallet address (account) of a user.\r\n    // This operation is valid once only. After adding primary address, player can not change it later\r\n    // So in future version we could change that\r\n    //\r\n    // requirements to update the primary address is to have an temporary address with ID\r\n    function UpdatePrimary(address executor_, address primary_, uint8[] memory sigV, bytes32[] memory sigR, bytes32[] memory sigS) public {\r\n        require(temporaryAddresses[executor_] > 0, \"Temporary address not exists\");\r\n        require(temporaryAddresses[primary_] == 0, \"Address is already used as a temporary account\");\r\n        require(primaryAddresses[primary_] == 0, \"Address is already used as a primary account\");\r\n\r\n        require(sigR.length == threshold);\r\n        require(sigR.length == sigS.length && sigR.length == sigV.length);\r\n        require(executor_ != gameOwner, \"Game Owner can't update temporary account\");\r\n        require(primary_ != gameOwner, \"Game Owner can't join the game\");\r\n\r\n        // Method should be called by one of the Multisig accounts\r\n        require (executor_ == msg.sender || gameOwner == msg.sender, \"Permission denied\");\r\n\r\n        // if id exists,\r\n        // remove the temporary account\r\n        // update the user's temporary account\r\n        uint userNumber = temporaryAddresses[executor_];\r\n\r\n        require(users[userNumber].primary == address(0), \"Primary address exists for the user\");\r\n\r\n\r\n        // EIP712 scheme: https://github.com/ethereum/EIPs/blob/master/EIPS/eip-712.md\r\n        bytes32 txInputHash = keccak256(abi.encode(TXTYPE_HASH_PRIMARY, executor_, primary_, users[userNumber].ID, nonce));\r\n        bytes32 totalHash = keccak256(abi.encodePacked(\"\\x19\\x01\", DOMAIN_SEPARATOR_PRIMARY, txInputHash));\r\n\r\n        // First signer is a temporary account\r\n        address recovered_0 = ecrecover(totalHash, sigV[0], sigR[0], sigS[0]);\r\n        require(recovered_0 == executor_, \"First signer is not a temporary account owner\");\r\n        // Second signer is Game owner\r\n        address recovered_1 = ecrecover(totalHash, sigV[1], sigR[1], sigS[1]);\r\n        require(recovered_1 == gameOwner, \"Second signer is not a game owner\");\r\n\r\n\r\n        users[userNumber].primary = primary_;\r\n\r\n        // register the primary account\r\n        primaryAddresses[primary_] = userNumber;\r\n\r\n        // If we make it here all signatures are accounted for.\r\n        // The address.call() syntax is no longer recommended, see:\r\n        // https://github.com/ethereum/solidity/issues/2884\r\n        nonce = nonce + 1;\r\n    }\r\n\r\n\r\n    // Can update the ID if primary address is added.\r\n    // Only primary address hold can invoke the function\r\n    function UpdateID(string memory id_) public {\r\n        require(primaryAddresses[msg.sender] > 0, \"Player do not exists\");\r\n        require(ids[id_] == 0, \"ID is already used by some User\");\r\n        require(bytes(id_).length <= 254, \"ID length must not exceed 254 characters\");\r\n\r\n        uint userNumber = primaryAddresses[msg.sender];\r\n\r\n        // remove the previous id\r\n        delete ids[users[userNumber].ID];\r\n\r\n        users[userNumber].ID = id_;\r\n    }\r\n\r\n    /// Returns User.ID by temporary or primary account used by the player\r\n    function GetID(address account) public view returns(string memory) {\r\n        uint userNumber = primaryAddresses[account];\r\n        if (userNumber == 0) {\r\n            userNumber = temporaryAddresses[account];\r\n\r\n            if (userNumber == 0) {\r\n                return \"\";\r\n            }\r\n        }\r\n\r\n        return users[userNumber].ID;\r\n    }\r\n\r\n    function GetTemporary(string memory id_) public view returns (address) {\r\n        uint userNumber = ids[id_];\r\n        if (userNumber == 0) {\r\n            return address(0);\r\n        }\r\n        return users[userNumber].temporary;\r\n    }\r\n\r\n    function GetPrimary(string memory id_) public view returns (address) {\r\n        uint userNumber = ids[id_];\r\n        if (userNumber == 0) {\r\n            return address(0);\r\n        }\r\n        return users[userNumber].primary;\r\n    }\r\n}\r\n",
  "sourcePath": "/mnt/c/repos/blocklords-loom-contracts/contracts/Walletless.sol",
  "compiler": {
    "name": "solc",
    "version": "0.5.8+commit.23d335f2.Emscripten.clang"
  },
  "schemaVersion": "3.0.15",
  "updatedAt": "2020-01-20T06:11:06.614Z",
  "devdoc": {
    "methods": {}
  },
  "userdoc": {
    "methods": {
      "GetID(address)": {
        "notice": "Returns User.ID by temporary or primary account used by the player"
      },
      "UpdateTemporary(address,string,uint8[],bytes32[],bytes32[])": {
        "notice": "Add a temporary address to the account"
      }
    }
  }
}